{
  "contractName": "YANFManager",
  "abi": [
    {
      "constant": false,
      "inputs": [],
      "name": "unpause",
      "outputs": [],
      "payable": false,
      "stateMutability": "nonpayable",
      "type": "function"
    },
    {
      "constant": true,
      "inputs": [
        {
          "name": "account",
          "type": "address"
        }
      ],
      "name": "isPauser",
      "outputs": [
        {
          "name": "",
          "type": "bool"
        }
      ],
      "payable": false,
      "stateMutability": "view",
      "type": "function"
    },
    {
      "constant": true,
      "inputs": [],
      "name": "paused",
      "outputs": [
        {
          "name": "",
          "type": "bool"
        }
      ],
      "payable": false,
      "stateMutability": "view",
      "type": "function"
    },
    {
      "constant": false,
      "inputs": [],
      "name": "renouncePauser",
      "outputs": [],
      "payable": false,
      "stateMutability": "nonpayable",
      "type": "function"
    },
    {
      "constant": false,
      "inputs": [],
      "name": "renounceOwnership",
      "outputs": [],
      "payable": false,
      "stateMutability": "nonpayable",
      "type": "function"
    },
    {
      "constant": false,
      "inputs": [
        {
          "name": "account",
          "type": "address"
        }
      ],
      "name": "addPauser",
      "outputs": [],
      "payable": false,
      "stateMutability": "nonpayable",
      "type": "function"
    },
    {
      "constant": false,
      "inputs": [],
      "name": "pause",
      "outputs": [],
      "payable": false,
      "stateMutability": "nonpayable",
      "type": "function"
    },
    {
      "constant": true,
      "inputs": [],
      "name": "owner",
      "outputs": [
        {
          "name": "",
          "type": "address"
        }
      ],
      "payable": false,
      "stateMutability": "view",
      "type": "function"
    },
    {
      "constant": true,
      "inputs": [],
      "name": "isOwner",
      "outputs": [
        {
          "name": "",
          "type": "bool"
        }
      ],
      "payable": false,
      "stateMutability": "view",
      "type": "function"
    },
    {
      "constant": true,
      "inputs": [],
      "name": "fee",
      "outputs": [
        {
          "name": "",
          "type": "uint256"
        }
      ],
      "payable": false,
      "stateMutability": "view",
      "type": "function"
    },
    {
      "constant": false,
      "inputs": [
        {
          "name": "newOwner",
          "type": "address"
        }
      ],
      "name": "transferOwnership",
      "outputs": [],
      "payable": false,
      "stateMutability": "nonpayable",
      "type": "function"
    },
    {
      "anonymous": false,
      "inputs": [
        {
          "indexed": false,
          "name": "account",
          "type": "address"
        }
      ],
      "name": "Paused",
      "type": "event"
    },
    {
      "anonymous": false,
      "inputs": [
        {
          "indexed": false,
          "name": "account",
          "type": "address"
        }
      ],
      "name": "Unpaused",
      "type": "event"
    },
    {
      "anonymous": false,
      "inputs": [
        {
          "indexed": true,
          "name": "account",
          "type": "address"
        }
      ],
      "name": "PauserAdded",
      "type": "event"
    },
    {
      "anonymous": false,
      "inputs": [
        {
          "indexed": true,
          "name": "account",
          "type": "address"
        }
      ],
      "name": "PauserRemoved",
      "type": "event"
    },
    {
      "anonymous": false,
      "inputs": [
        {
          "indexed": true,
          "name": "previousOwner",
          "type": "address"
        },
        {
          "indexed": true,
          "name": "newOwner",
          "type": "address"
        }
      ],
      "name": "OwnershipTransferred",
      "type": "event"
    },
    {
      "constant": false,
      "inputs": [
        {
          "name": "who",
          "type": "address"
        }
      ],
      "name": "setFeeReceiver",
      "outputs": [],
      "payable": false,
      "stateMutability": "nonpayable",
      "type": "function"
    },
    {
      "constant": true,
      "inputs": [],
      "name": "getFeeReceiver",
      "outputs": [
        {
          "name": "",
          "type": "address"
        }
      ],
      "payable": false,
      "stateMutability": "view",
      "type": "function"
    },
    {
      "constant": false,
      "inputs": [
        {
          "name": "title",
          "type": "string"
        },
        {
          "name": "content_hash",
          "type": "string"
        },
        {
          "name": "coauthors",
          "type": "address[]"
        },
        {
          "name": "parts",
          "type": "uint256[]"
        },
        {
          "name": "price",
          "type": "uint256"
        }
      ],
      "name": "publish",
      "outputs": [
        {
          "name": "",
          "type": "bool"
        }
      ],
      "payable": false,
      "stateMutability": "nonpayable",
      "type": "function"
    },
    {
      "constant": false,
      "inputs": [
        {
          "name": "who",
          "type": "address"
        },
        {
          "name": "articleIndex",
          "type": "uint256"
        },
        {
          "name": "part",
          "type": "uint256"
        }
      ],
      "name": "setCoauthorPart",
      "outputs": [
        {
          "name": "",
          "type": "bool"
        }
      ],
      "payable": false,
      "stateMutability": "nonpayable",
      "type": "function"
    },
    {
      "constant": true,
      "inputs": [
        {
          "name": "feedIndex",
          "type": "uint256"
        },
        {
          "name": "articleOffset",
          "type": "uint256"
        },
        {
          "name": "title",
          "type": "string"
        },
        {
          "name": "price",
          "type": "uint256"
        },
        {
          "name": "coauthor",
          "type": "address"
        },
        {
          "name": "titlePredicate",
          "type": "bool"
        },
        {
          "name": "pricePredicate",
          "type": "bool"
        },
        {
          "name": "coauthorPredicate",
          "type": "bool"
        }
      ],
      "name": "searchArticlesByChosenPredicate",
      "outputs": [
        {
          "name": "",
          "type": "uint256[]"
        }
      ],
      "payable": false,
      "stateMutability": "view",
      "type": "function"
    },
    {
      "constant": true,
      "inputs": [
        {
          "name": "author",
          "type": "address"
        }
      ],
      "name": "searchFeedByAuthor",
      "outputs": [
        {
          "name": "feedIndex",
          "type": "uint256"
        }
      ],
      "payable": false,
      "stateMutability": "view",
      "type": "function"
    },
    {
      "constant": false,
      "inputs": [],
      "name": "sendContractFees",
      "outputs": [
        {
          "name": "",
          "type": "bool"
        }
      ],
      "payable": false,
      "stateMutability": "nonpayable",
      "type": "function"
    },
    {
      "constant": false,
      "inputs": [
        {
          "name": "author",
          "type": "address"
        },
        {
          "name": "feed",
          "type": "uint256"
        },
        {
          "name": "article",
          "type": "uint256"
        }
      ],
      "name": "buy",
      "outputs": [
        {
          "name": "",
          "type": "bool"
        }
      ],
      "payable": true,
      "stateMutability": "payable",
      "type": "function"
    },
    {
      "constant": false,
      "inputs": [],
      "name": "receiveRoyalty",
      "outputs": [
        {
          "name": "",
          "type": "bool"
        }
      ],
      "payable": false,
      "stateMutability": "nonpayable",
      "type": "function"
    },
    {
      "constant": true,
      "inputs": [
        {
          "name": "feedIndex",
          "type": "uint256"
        },
        {
          "name": "articleIndex",
          "type": "uint256"
        }
      ],
      "name": "getArticleTitle",
      "outputs": [
        {
          "name": "",
          "type": "string"
        }
      ],
      "payable": false,
      "stateMutability": "view",
      "type": "function"
    },
    {
      "constant": true,
      "inputs": [
        {
          "name": "feedIndex",
          "type": "uint256"
        },
        {
          "name": "articleIndex",
          "type": "uint256"
        }
      ],
      "name": "getArticleContentHash",
      "outputs": [
        {
          "name": "",
          "type": "string"
        }
      ],
      "payable": false,
      "stateMutability": "view",
      "type": "function"
    },
    {
      "constant": true,
      "inputs": [
        {
          "name": "feedIndex",
          "type": "uint256"
        },
        {
          "name": "articleIndex",
          "type": "uint256"
        }
      ],
      "name": "getArticlePrice",
      "outputs": [
        {
          "name": "",
          "type": "uint256"
        }
      ],
      "payable": false,
      "stateMutability": "view",
      "type": "function"
    },
    {
      "constant": true,
      "inputs": [
        {
          "name": "feedIndex",
          "type": "uint256"
        },
        {
          "name": "articleIndex",
          "type": "uint256"
        }
      ],
      "name": "getArticleCoauthorsCount",
      "outputs": [
        {
          "name": "",
          "type": "uint256"
        }
      ],
      "payable": false,
      "stateMutability": "view",
      "type": "function"
    },
    {
      "constant": true,
      "inputs": [
        {
          "name": "feedIndex",
          "type": "uint256"
        },
        {
          "name": "articleIndex",
          "type": "uint256"
        },
        {
          "name": "coauthorRank",
          "type": "uint256"
        }
      ],
      "name": "getArticleCoauthor",
      "outputs": [
        {
          "name": "",
          "type": "address"
        }
      ],
      "payable": false,
      "stateMutability": "view",
      "type": "function"
    }
  ],
  "bytecode": "0x6080604052600060055560126040516200001990620003a9565b8080602001806020018460ff1681526020018381038352601b8152602001807f59657420416e6f74686572204e657773204665656420546f6b656e0000000000815250602001838103825260048152602001807f59414e46000000000000000000000000000000000000000000000000000000008152506020019350505050604051809103906000f080158015620000b5573d6000803e3d6000fd5b50600760006101000a81548173ffffffffffffffffffffffffffffffffffffffff021916908373ffffffffffffffffffffffffffffffffffffffff160217905550336000806101000a81548173ffffffffffffffffffffffffffffffffffffffff021916908373ffffffffffffffffffffffffffffffffffffffff1602179055506000809054906101000a900473ffffffffffffffffffffffffffffffffffffffff1673ffffffffffffffffffffffffffffffffffffffff16600073ffffffffffffffffffffffffffffffffffffffff167f8be0079c531659141344cd1fd0a4f28419497f9722a3daafe3b4186f6b6457e060405160405180910390a3620001cc33620001ed640100000000026401000000009004565b6000600260006101000a81548160ff021916908315150217905550620003b7565b6200021181600162000257640100000000026200313d179091906401000000009004565b8073ffffffffffffffffffffffffffffffffffffffff167f6719d08c1888103bea251a4ed56406bd0c3e69723c8a1686e017e7bbe159b6f860405160405180910390a250565b600073ffffffffffffffffffffffffffffffffffffffff168173ffffffffffffffffffffffffffffffffffffffff1614156200029257600080fd5b620002ad828262000316640100000000026401000000009004565b15620002b857600080fd5b60018260000160008373ffffffffffffffffffffffffffffffffffffffff1673ffffffffffffffffffffffffffffffffffffffff16815260200190815260200160002060006101000a81548160ff0219169083151502179055505050565b60008073ffffffffffffffffffffffffffffffffffffffff168273ffffffffffffffffffffffffffffffffffffffff1614156200035257600080fd5b8260000160008373ffffffffffffffffffffffffffffffffffffffff1673ffffffffffffffffffffffffffffffffffffffff16815260200190815260200160002060009054906101000a900460ff16905092915050565b6121c8806200368183390190565b6132ba80620003c76000396000f3fe608060405260043610610183576000357c0100000000000000000000000000000000000000000000000000000000900480638456cb59116100ee578063c23bc358116100a7578063e8a3539211610081578063e8a3539214610be5578063efdcd97414610c3c578063f2fde38b14610c8d578063fdad0b4714610cde57610183565b8063c23bc358146109ab578063c32fa2ea14610a3a578063ddca3f4314610bba57610183565b80638456cb59146107e05780638da5cb5b146107f75780638f32d59b1461084e5780639c48202c1461087d578063a59ac6dd146108e2578063b5f532461461095257610183565b8063497265cd11610140578063497265cd1461045a5780635c975abb1461048957806369b6c8c2146104b85780636ef8d66d14610761578063715018a61461077857806382dc1ec41461078f57610183565b80630c791252146101885780630f22b96b1461020557806324a9b0ac146102c35780633f4ba83a1461038157806346fbf68e1461039857806347edf4c814610401575b600080fd5b34801561019457600080fd5b506101eb600480360360608110156101ab57600080fd5b81019080803573ffffffffffffffffffffffffffffffffffffffff1690602001909291908035906020019092919080359060200190929190505050610d0d565b604051808215151515815260200191505060405180910390f35b34801561021157600080fd5b506102486004803603604081101561022857600080fd5b810190808035906020019092919080359060200190929190505050610fda565b6040518080602001828103825283818151815260200191508051906020019080838360005b8381101561028857808201518184015260208101905061026d565b50505050905090810190601f1680156102b55780820380516001836020036101000a031916815260200191505b509250505060405180910390f35b3480156102cf57600080fd5b50610306600480360360408110156102e657600080fd5b8101908080359060200190929190803590602001909291905050506111ca565b6040518080602001828103825283818151815260200191508051906020019080838360005b8381101561034657808201518184015260208101905061032b565b50505050905090810190601f1680156103735780820380516001836020036101000a031916815260200191505b509250505060405180910390f35b34801561038d57600080fd5b506103966112b1565b005b3480156103a457600080fd5b506103e7600480360360208110156103bb57600080fd5b81019080803573ffffffffffffffffffffffffffffffffffffffff16906020019092919050505061135c565b604051808215151515815260200191505060405180910390f35b34801561040d57600080fd5b506104446004803603604081101561042457600080fd5b810190808035906020019092919080359060200190929190505050611379565b6040518082815260200191505060405180910390f35b34801561046657600080fd5b5061046f6113c8565b604051808215151515815260200191505060405180910390f35b34801561049557600080fd5b5061049e6117fd565b604051808215151515815260200191505060405180910390f35b3480156104c457600080fd5b50610747600480360360a08110156104db57600080fd5b81019080803590602001906401000000008111156104f857600080fd5b82018360208201111561050a57600080fd5b8035906020019184600183028401116401000000008311171561052c57600080fd5b91908080601f016020809104026020016040519081016040528093929190818152602001838380828437600081840152601f19601f8201169050808301925050505050505091929192908035906020019064010000000081111561058f57600080fd5b8201836020820111156105a157600080fd5b803590602001918460018302840111640100000000831117156105c357600080fd5b91908080601f016020809104026020016040519081016040528093929190818152602001838380828437600081840152601f19601f8201169050808301925050505050505091929192908035906020019064010000000081111561062657600080fd5b82018360208201111561063857600080fd5b8035906020019184602083028401116401000000008311171561065a57600080fd5b919080806020026020016040519081016040528093929190818152602001838360200280828437600081840152601f19601f820116905080830192505050505050509192919290803590602001906401000000008111156106ba57600080fd5b8201836020820111156106cc57600080fd5b803590602001918460208302840111640100000000831117156106ee57600080fd5b919080806020026020016040519081016040528093929190818152602001838360200280828437600081840152601f19601f82011690508083019250505050505050919291929080359060200190929190505050611814565b604051808215151515815260200191505060405180910390f35b34801561076d57600080fd5b50610776611d51565b005b34801561078457600080fd5b5061078d611d5c565b005b34801561079b57600080fd5b506107de600480360360208110156107b257600080fd5b81019080803573ffffffffffffffffffffffffffffffffffffffff169060200190929190505050611e2c565b005b3480156107ec57600080fd5b506107f5611e4a565b005b34801561080357600080fd5b5061080c611ef6565b604051808273ffffffffffffffffffffffffffffffffffffffff1673ffffffffffffffffffffffffffffffffffffffff16815260200191505060405180910390f35b34801561085a57600080fd5b50610863611f1f565b604051808215151515815260200191505060405180910390f35b34801561088957600080fd5b506108cc600480360360208110156108a057600080fd5b81019080803573ffffffffffffffffffffffffffffffffffffffff169060200190929190505050611f76565b6040518082815260200191505060405180910390f35b610938600480360360608110156108f857600080fd5b81019080803573ffffffffffffffffffffffffffffffffffffffff1690602001909291908035906020019092919080359060200190929190505050611fd9565b604051808215151515815260200191505060405180910390f35b34801561095e57600080fd5b506109956004803603604081101561097557600080fd5b8101908080359060200190929190803590602001909291905050506126a8565b6040518082815260200191505060405180910390f35b3480156109b757600080fd5b506109f8600480360360608110156109ce57600080fd5b810190808035906020019092919080359060200190929190803590602001909291905050506126f7565b604051808273ffffffffffffffffffffffffffffffffffffffff1673ffffffffffffffffffffffffffffffffffffffff16815260200191505060405180910390f35b348015610a4657600080fd5b50610b636004803603610100811015610a5e57600080fd5b81019080803590602001909291908035906020019092919080359060200190640100000000811115610a8f57600080fd5b820183602082011115610aa157600080fd5b80359060200191846001830284011164010000000083111715610ac357600080fd5b91908080601f016020809104026020016040519081016040528093929190818152602001838380828437600081840152601f19601f82011690508083019250505050505050919291929080359060200190929190803573ffffffffffffffffffffffffffffffffffffffff169060200190929190803515159060200190929190803515159060200190929190803515159060200190929190505050612778565b6040518080602001828103825283818151815260200191508051906020019060200280838360005b83811015610ba6578082015181840152602081019050610b8b565b505050509050019250505060405180910390f35b348015610bc657600080fd5b50610bcf61297c565b6040518082815260200191505060405180910390f35b348015610bf157600080fd5b50610bfa612987565b604051808273ffffffffffffffffffffffffffffffffffffffff1673ffffffffffffffffffffffffffffffffffffffff16815260200191505060405180910390f35b348015610c4857600080fd5b50610c8b60048036036020811015610c5f57600080fd5b81019080803573ffffffffffffffffffffffffffffffffffffffff1690602001909291905050506129dc565b005b348015610c9957600080fd5b50610cdc60048036036020811015610cb057600080fd5b81019080803573ffffffffffffffffffffffffffffffffffffffff169060200190929190505050612a4b565b005b348015610cea57600080fd5b50610cf3612a68565b604051808215151515815260200191505060405180910390f35b6000600260009054906101000a900460ff1615610d2957600080fd5b6000600460003373ffffffffffffffffffffffffffffffffffffffff1673ffffffffffffffffffffffffffffffffffffffff168152602001908152602001600020549050600073ffffffffffffffffffffffffffffffffffffffff168573ffffffffffffffffffffffffffffffffffffffff161480610dc957506003600082815260200190815260200160002060020160009054906101000a900460ff16155b80610dfe5750600360008281526020019081526020016000206001016000858152602001908152602001600020600801548310155b15610e0d576000915050610fd3565b600060036000838152602001908152602001600020600101600086815260200190815260200160002060030160008773ffffffffffffffffffffffffffffffffffffffff1673ffffffffffffffffffffffffffffffffffffffff168152602001908152602001600020541415610f61576000600360008381526020019081526020016000206001016000868152602001908152602001600020600501549050610eb7816001612b1c565b6003600084815260200190815260200160002060010160008781526020019081526020016000206005018190555085600360008481526020019081526020016000206001016000878152602001908152602001600020600401600083815260200190815260200160002060006101000a81548173ffffffffffffffffffffffffffffffffffffffff021916908373ffffffffffffffffffffffffffffffffffffffff160217905550505b8260036000838152602001908152602001600020600101600086815260200190815260200160002060030160008773ffffffffffffffffffffffffffffffffffffffff1673ffffffffffffffffffffffffffffffffffffffff1681526020019081526020016000208190555060019150505b9392505050565b6060600260009054906101000a900460ff1615610ff657600080fd5b82600460003373ffffffffffffffffffffffffffffffffffffffff1673ffffffffffffffffffffffffffffffffffffffff16815260200190815260200160002054148061104a5750611049838333612b3b565b5b806110bc5750600060036000858152602001908152602001600020600101600084815260200190815260200160002060030160003373ffffffffffffffffffffffffffffffffffffffff1673ffffffffffffffffffffffffffffffffffffffff16815260200190815260200160002054115b1561118b576003600084815260200190815260200160002060010160008381526020019081526020016000206001018054600181600116156101000203166002900480601f01602080910402602001604051908101604052809291908181526020018280546001816001161561010002031660029004801561117f5780601f106111545761010080835404028352916020019161117f565b820191906000526020600020905b81548152906001019060200180831161116257829003601f168201915b505050505090506111c4565b6040518060400160405280600981526020017f464f5242494444454e000000000000000000000000000000000000000000000081525090505b92915050565b6060600260009054906101000a900460ff16156111e657600080fd5b6003600084815260200190815260200160002060010160008381526020019081526020016000206000018054600181600116156101000203166002900480601f0160208091040260200160405190810160405280929190818152602001828054600181600116156101000203166002900480156112a45780601f10611279576101008083540402835291602001916112a4565b820191906000526020600020905b81548152906001019060200180831161128757829003601f168201915b5050505050905092915050565b6112ba3361135c565b6112c357600080fd5b600260009054906101000a900460ff166112dc57600080fd5b6000600260006101000a81548160ff0219169083151502179055507f5db9ee0a495bf2e6ff9c91a7834c1ba4fdd244a5e8aa4e537bd38aeae4b073aa33604051808273ffffffffffffffffffffffffffffffffffffffff1673ffffffffffffffffffffffffffffffffffffffff16815260200191505060405180910390a1565b6000611372826001612c4790919063ffffffff16565b9050919050565b6000600260009054906101000a900460ff161561139557600080fd5b60036000848152602001908152602001600020600101600083815260200190815260200160002060080154905092915050565b6000600260009054906101000a900460ff16156113e457600080fd5b6000600760009054906101000a900473ffffffffffffffffffffffffffffffffffffffff1673ffffffffffffffffffffffffffffffffffffffff166370a08231336040518263ffffffff167c0100000000000000000000000000000000000000000000000000000000028152600401808273ffffffffffffffffffffffffffffffffffffffff1673ffffffffffffffffffffffffffffffffffffffff16815260200191505060206040518083038186803b1580156114a157600080fd5b505afa1580156114b5573d6000803e3d6000fd5b505050506040513d60208110156114cb57600080fd5b810190808051906020019092919050505014156114eb57600190506117fa565b3373ffffffffffffffffffffffffffffffffffffffff166108fc600760009054906101000a900473ffffffffffffffffffffffffffffffffffffffff1673ffffffffffffffffffffffffffffffffffffffff166370a08231336040518263ffffffff167c0100000000000000000000000000000000000000000000000000000000028152600401808273ffffffffffffffffffffffffffffffffffffffff1673ffffffffffffffffffffffffffffffffffffffff16815260200191505060206040518083038186803b1580156115c057600080fd5b505afa1580156115d4573d6000803e3d6000fd5b505050506040513d60208110156115ea57600080fd5b81019080805190602001909291905050509081150290604051600060405180830381858888f19350505050158015611626573d6000803e3d6000fd5b50600760009054906101000a900473ffffffffffffffffffffffffffffffffffffffff1673ffffffffffffffffffffffffffffffffffffffff166379cc679033600760009054906101000a900473ffffffffffffffffffffffffffffffffffffffff1673ffffffffffffffffffffffffffffffffffffffff166370a08231336040518263ffffffff167c0100000000000000000000000000000000000000000000000000000000028152600401808273ffffffffffffffffffffffffffffffffffffffff1673ffffffffffffffffffffffffffffffffffffffff16815260200191505060206040518083038186803b15801561172157600080fd5b505afa158015611735573d6000803e3d6000fd5b505050506040513d602081101561174b57600080fd5b81019080805190602001909291905050506040518363ffffffff167c0100000000000000000000000000000000000000000000000000000000028152600401808373ffffffffffffffffffffffffffffffffffffffff1673ffffffffffffffffffffffffffffffffffffffff16815260200182815260200192505050600060405180830381600087803b1580156117e157600080fd5b505af11580156117f5573d6000803e3d6000fd5b505050505b90565b6000600260009054906101000a900460ff16905090565b6000600260009054906101000a900460ff161561183057600080fd5b82518451146118425760009050611d48565b600080905060008090505b8451811015611887576118738286838151811061186657fe5b6020026020010151612b1c565b9150611880816001612b1c565b905061184d565b508281111561189a576000915050611d48565b60036000600460003373ffffffffffffffffffffffffffffffffffffffff1673ffffffffffffffffffffffffffffffffffffffff16815260200190815260200160002054815260200190815260200160002060020160009054906101000a900460ff16611b6f5761190e6005546001612b1c565b6005819055506119216005546001612cd9565b600460003373ffffffffffffffffffffffffffffffffffffffff1673ffffffffffffffffffffffffffffffffffffffff168152602001908152602001600020819055506040518060400160405280600081526020016001151581525060036000600460003373ffffffffffffffffffffffffffffffffffffffff1673ffffffffffffffffffffffffffffffffffffffff1681526020019081526020016000205481526020019081526020016000206000820151816000015560208201518160020160006101000a81548160ff021916908315150217905550905050600160036000600460003373ffffffffffffffffffffffffffffffffffffffff1673ffffffffffffffffffffffffffffffffffffffff168152602001908152602001600020548152602001908152602001600020600001819055506040518060c0016040528088815260200187815260200160011515815260200186518152602001600081526020018481525060036000600460003373ffffffffffffffffffffffffffffffffffffffff1673ffffffffffffffffffffffffffffffffffffffff16815260200190815260200160002054815260200190815260200160002060010160008081526020019081526020016000206000820151816000019080519060200190611b0b9291906131e9565b506020820151816001019080519060200190611b289291906131e9565b5060408201518160020160006101000a81548160ff021916908315150217905550606082015181600501556080820151816007015560a08201518160080155905050611d42565b600060036000600460003373ffffffffffffffffffffffffffffffffffffffff1673ffffffffffffffffffffffffffffffffffffffff168152602001908152602001600020548152602001908152602001600020600001549050611bd4816001612b1c565b60036000600460003373ffffffffffffffffffffffffffffffffffffffff1673ffffffffffffffffffffffffffffffffffffffff168152602001908152602001600020548152602001908152602001600020600001819055506040518060c0016040528089815260200188815260200160011515815260200187518152602001600081526020018581525060036000600460003373ffffffffffffffffffffffffffffffffffffffff1673ffffffffffffffffffffffffffffffffffffffff16815260200190815260200160002054815260200190815260200160002060010160008381526020019081526020016000206000820151816000019080519060200190611ce19291906131e9565b506020820151816001019080519060200190611cfe9291906131e9565b5060408201518160020160006101000a81548160ff021916908315150217905550606082015181600501556080820151816007015560a08201518160080155905050505b60019150505b95945050505050565b611d5a33612cf9565b565b611d64611f1f565b611d6d57600080fd5b600073ffffffffffffffffffffffffffffffffffffffff166000809054906101000a900473ffffffffffffffffffffffffffffffffffffffff1673ffffffffffffffffffffffffffffffffffffffff167f8be0079c531659141344cd1fd0a4f28419497f9722a3daafe3b4186f6b6457e060405160405180910390a360008060006101000a81548173ffffffffffffffffffffffffffffffffffffffff021916908373ffffffffffffffffffffffffffffffffffffffff160217905550565b611e353361135c565b611e3e57600080fd5b611e4781612d53565b50565b611e533361135c565b611e5c57600080fd5b600260009054906101000a900460ff1615611e7657600080fd5b6001600260006101000a81548160ff0219169083151502179055507f62e78cea01bee320cd4e420270b5ea74000d11b0c9f74754ebdbfc544b05a25833604051808273ffffffffffffffffffffffffffffffffffffffff1673ffffffffffffffffffffffffffffffffffffffff16815260200191505060405180910390a1565b60008060009054906101000a900473ffffffffffffffffffffffffffffffffffffffff16905090565b60008060009054906101000a900473ffffffffffffffffffffffffffffffffffffffff1673ffffffffffffffffffffffffffffffffffffffff163373ffffffffffffffffffffffffffffffffffffffff1614905090565b6000600260009054906101000a900460ff1615611f9257600080fd5b600460008373ffffffffffffffffffffffffffffffffffffffff1673ffffffffffffffffffffffffffffffffffffffff168152602001908152602001600020549050919050565b6000600260009054906101000a900460ff1615611ff557600080fd5b82600460008673ffffffffffffffffffffffffffffffffffffffff1673ffffffffffffffffffffffffffffffffffffffff168152602001908152602001600020541461204457600090506126a1565b6003600084815260200190815260200160002060020160009054906101000a900460ff1615806120a9575060036000848152602001908152602001600020600101600083815260200190815260200160002060020160009054906101000a900460ff16155b156120b757600090506126a1565b60006003600085815260200190815260200160002060010160008481526020019081526020016000206008015411156125bf5766038d7ea4c68000600360008581526020019081526020016000206001016000848152602001908152602001600020600801540134106125b65733600360008581526020019081526020016000206001016000848152602001908152602001600020600601600060036000878152602001908152602001600020600101600086815260200190815260200160002060070154815260200190815260200160002060006101000a81548173ffffffffffffffffffffffffffffffffffffffff021916908373ffffffffffffffffffffffffffffffffffffffff160217905550600160036000858152602001908152602001600020600101600084815260200190815260200160002060070160008282540192505081905550600060036000858152602001908152602001600020600101600084815260200190815260200160002060080154905060008090505b600360008681526020019081526020016000206001016000858152602001908152602001600020600501548110156124aa5760006003600087815260200190815260200160002060010160008681526020019081526020016000206003016000600360008981526020019081526020016000206001016000888152602001908152602001600020600401600085815260200190815260200160002060009054906101000a900473ffffffffffffffffffffffffffffffffffffffff1673ffffffffffffffffffffffffffffffffffffffff1673ffffffffffffffffffffffffffffffffffffffff1681526020019081526020016000205490506123398382612cd9565b9250600760009054906101000a900473ffffffffffffffffffffffffffffffffffffffff1673ffffffffffffffffffffffffffffffffffffffff166340c10f19600360008981526020019081526020016000206001016000888152602001908152602001600020600401600085815260200190815260200160002060009054906101000a900473ffffffffffffffffffffffffffffffffffffffff16836040518363ffffffff167c0100000000000000000000000000000000000000000000000000000000028152600401808373ffffffffffffffffffffffffffffffffffffffff1673ffffffffffffffffffffffffffffffffffffffff16815260200182815260200192505050602060405180830381600087803b15801561245b57600080fd5b505af115801561246f573d6000803e3d6000fd5b505050506040513d602081101561248557600080fd5b810190808051906020019092919050505050506124a3816001612b1c565b9050612236565b50600760009054906101000a900473ffffffffffffffffffffffffffffffffffffffff1673ffffffffffffffffffffffffffffffffffffffff166340c10f1986836040518363ffffffff167c0100000000000000000000000000000000000000000000000000000000028152600401808373ffffffffffffffffffffffffffffffffffffffff1673ffffffffffffffffffffffffffffffffffffffff16815260200182815260200192505050602060405180830381600087803b15801561257057600080fd5b505af1158015612584573d6000803e3d6000fd5b505050506040513d602081101561259a57600080fd5b81019080805190602001909291905050505060019150506126a1565b600090506126a1565b33600360008581526020019081526020016000206001016000848152602001908152602001600020600601600060036000878152602001908152602001600020600101600086815260200190815260200160002060070154815260200190815260200160002060006101000a81548173ffffffffffffffffffffffffffffffffffffffff021916908373ffffffffffffffffffffffffffffffffffffffff160217905550600160036000858152602001908152602001600020600101600084815260200190815260200160002060070160008282540192505081905550600190505b9392505050565b6000600260009054906101000a900460ff16156126c457600080fd5b60036000848152602001908152602001600020600101600083815260200190815260200160002060050154905092915050565b6000600260009054906101000a900460ff161561271357600080fd5b600360008581526020019081526020016000206001016000848152602001908152602001600020600401600083815260200190815260200160002060009054906101000a900473ffffffffffffffffffffffffffffffffffffffff1690509392505050565b6060600260009054906101000a900460ff161561279457600080fd5b60606103e86040519080825280602002602001820160405280156127c75781602001602082028038833980820191505090505b509050600080905060008a90505b600360008d81526020019081526020016000206000015481101561296a576128bf600360008e815260200190815260200160002060010160008381526020019081526020016000206000018054600181600116156101000203166002900480601f0160208091040260200160405190810160405280929190818152602001828054600181600116156101000203166002900480156128b45780601f10612889576101008083540402835291602001916128b4565b820191906000526020600020905b81548152906001019060200180831161289757829003601f168201915b50505050508b612dad565b80156128c85750865b806128e357506128d98c828b612eb6565b80156128e25750855b5b806128fe57506128f48c828a612f09565b80156128fd5750845b5b15612958578083838151811061291057fe5b602002602001018181525050612927826001612b1c565b91506103e882111561295757612954600360008e8152602001908152602001600020600001546001612b1c565b90505b5b612963816001612b1c565b90506127d5565b50819250505098975050505050505050565b66038d7ea4c6800081565b6000612991611f1f565b61299a57600080fd5b600260009054906101000a900460ff16156129b457600080fd5b600660009054906101000a900473ffffffffffffffffffffffffffffffffffffffff16905090565b6129e4611f1f565b6129ed57600080fd5b600260009054906101000a900460ff1615612a0757600080fd5b80600660006101000a81548173ffffffffffffffffffffffffffffffffffffffff021916908373ffffffffffffffffffffffffffffffffffffffff16021790555050565b612a53611f1f565b612a5c57600080fd5b612a6581612f9a565b50565b6000612a72611f1f565b612a7b57600080fd5b600260009054906101000a900460ff1615612a9557600080fd5b600660009054906101000a900473ffffffffffffffffffffffffffffffffffffffff1673ffffffffffffffffffffffffffffffffffffffff166108fc3073ffffffffffffffffffffffffffffffffffffffff16319081150290604051600060405180830381858888f19350505050158015612b14573d6000803e3d6000fd5b506001905090565b600080828401905083811015612b3157600080fd5b8091505092915050565b6000600260009054906101000a900460ff1615612b5757600080fd5b60008090505b60036000868152602001908152602001600020600101600085815260200190815260200160002060070154811015612c3a578273ffffffffffffffffffffffffffffffffffffffff16600360008781526020019081526020016000206001016000868152602001908152602001600020600601600083815260200190815260200160002060009054906101000a900473ffffffffffffffffffffffffffffffffffffffff1673ffffffffffffffffffffffffffffffffffffffff161415612c28576001915050612c40565b612c33816001612b1c565b9050612b5d565b50600090505b9392505050565b60008073ffffffffffffffffffffffffffffffffffffffff168273ffffffffffffffffffffffffffffffffffffffff161415612c8257600080fd5b8260000160008373ffffffffffffffffffffffffffffffffffffffff1673ffffffffffffffffffffffffffffffffffffffff16815260200190815260200160002060009054906101000a900460ff16905092915050565b600082821115612ce857600080fd5b600082840390508091505092915050565b612d0d81600161309290919063ffffffff16565b8073ffffffffffffffffffffffffffffffffffffffff167fcd265ebaf09df2871cc7bd4133404a235ba12eff2041bb89d9c714a2621c7c7e60405160405180910390a250565b612d6781600161313d90919063ffffffff16565b8073ffffffffffffffffffffffffffffffffffffffff167f6719d08c1888103bea251a4ed56406bd0c3e69723c8a1686e017e7bbe159b6f860405160405180910390a250565b6000600260009054906101000a900460ff1615612dc957600080fd5b816040516020018082805190602001908083835b60208310612e005780518252602082019150602081019050602083039250612ddd565b6001836020036101000a03801982511681845116808217855250505050505090500191505060405160208183030381529060405280519060200120836040516020018082805190602001908083835b60208310612e725780518252602082019150602081019050602083039250612e4f565b6001836020036101000a0380198251168184511680821785525050505050509050019150506040516020818303038152906040528051906020012014905092915050565b6000600260009054906101000a900460ff1615612ed257600080fd5b8160036000868152602001908152602001600020600101600085815260200190815260200160002060080154111590509392505050565b6000600260009054906101000a900460ff1615612f2557600080fd5b600060036000868152602001908152602001600020600101600085815260200190815260200160002060030160008473ffffffffffffffffffffffffffffffffffffffff1673ffffffffffffffffffffffffffffffffffffffff16815260200190815260200160002054141590509392505050565b600073ffffffffffffffffffffffffffffffffffffffff168173ffffffffffffffffffffffffffffffffffffffff161415612fd457600080fd5b8073ffffffffffffffffffffffffffffffffffffffff166000809054906101000a900473ffffffffffffffffffffffffffffffffffffffff1673ffffffffffffffffffffffffffffffffffffffff167f8be0079c531659141344cd1fd0a4f28419497f9722a3daafe3b4186f6b6457e060405160405180910390a3806000806101000a81548173ffffffffffffffffffffffffffffffffffffffff021916908373ffffffffffffffffffffffffffffffffffffffff16021790555050565b600073ffffffffffffffffffffffffffffffffffffffff168173ffffffffffffffffffffffffffffffffffffffff1614156130cc57600080fd5b6130d68282612c47565b6130df57600080fd5b60008260000160008373ffffffffffffffffffffffffffffffffffffffff1673ffffffffffffffffffffffffffffffffffffffff16815260200190815260200160002060006101000a81548160ff0219169083151502179055505050565b600073ffffffffffffffffffffffffffffffffffffffff168173ffffffffffffffffffffffffffffffffffffffff16141561317757600080fd5b6131818282612c47565b1561318b57600080fd5b60018260000160008373ffffffffffffffffffffffffffffffffffffffff1673ffffffffffffffffffffffffffffffffffffffff16815260200190815260200160002060006101000a81548160ff0219169083151502179055505050565b828054600181600116156101000203166002900490600052602060002090601f016020900481019282601f1061322a57805160ff1916838001178555613258565b82800160010185558215613258579182015b8281111561325757825182559160200191906001019061323c565b5b5090506132659190613269565b5090565b61328b91905b8082111561328757600081600090555060010161326f565b5090565b9056fea165627a7a72305820d7c72eba4245bca6c3d18e58abe95cc42f554d1b9e517d96a1e586331d5eef80002960806040523480156200001157600080fd5b50604051620021c8380380620021c8833981018060405260608110156200003757600080fd5b8101908080516401000000008111156200005057600080fd5b828101905060208101848111156200006757600080fd5b81518560018202830111640100000000821117156200008557600080fd5b50509291906020018051640100000000811115620000a257600080fd5b82810190506020810184811115620000b957600080fd5b8151856001820283011164010000000082111715620000d757600080fd5b505092919060200180519060200190929190505050828282826000908051906020019062000107929190620003f7565b50816001908051906020019062000120929190620003f7565b5080600260006101000a81548160ff021916908360ff16021790555050505062000159336200023b640100000000026401000000009004565b6000600760006101000a81548160ff02191690831515021790555033600760016101000a81548173ffffffffffffffffffffffffffffffffffffffff021916908373ffffffffffffffffffffffffffffffffffffffff160217905550600760019054906101000a900473ffffffffffffffffffffffffffffffffffffffff1673ffffffffffffffffffffffffffffffffffffffff16600073ffffffffffffffffffffffffffffffffffffffff167f8be0079c531659141344cd1fd0a4f28419497f9722a3daafe3b4186f6b6457e060405160405180910390a3505050620004a6565b6200025f816006620002a564010000000002620016dd179091906401000000009004565b8073ffffffffffffffffffffffffffffffffffffffff167f6719d08c1888103bea251a4ed56406bd0c3e69723c8a1686e017e7bbe159b6f860405160405180910390a250565b600073ffffffffffffffffffffffffffffffffffffffff168173ffffffffffffffffffffffffffffffffffffffff161415620002e057600080fd5b620002fb828262000364640100000000026401000000009004565b156200030657600080fd5b60018260000160008373ffffffffffffffffffffffffffffffffffffffff1673ffffffffffffffffffffffffffffffffffffffff16815260200190815260200160002060006101000a81548160ff0219169083151502179055505050565b60008073ffffffffffffffffffffffffffffffffffffffff168273ffffffffffffffffffffffffffffffffffffffff161415620003a057600080fd5b8260000160008373ffffffffffffffffffffffffffffffffffffffff1673ffffffffffffffffffffffffffffffffffffffff16815260200190815260200160002060009054906101000a900460ff16905092915050565b828054600181600116156101000203166002900490600052602060002090601f016020900481019282601f106200043a57805160ff19168380011785556200046b565b828001600101855582156200046b579182015b828111156200046a5782518255916020019190600101906200044d565b5b5090506200047a91906200047e565b5090565b620004a391905b808211156200049f57600081600090555060010162000485565b5090565b90565b611d1280620004b66000396000f3fe608060405234801561001057600080fd5b5060043610610175576000357c01000000000000000000000000000000000000000000000000000000009004806370a08231116100e05780638f32d59b116100995780638f32d59b146105ff57806395d89b4114610621578063a457c2d7146106a4578063a9059cbb1461070a578063dd62ed3e14610770578063f2fde38b146107e857610175565b806370a08231146104b7578063715018a61461050f57806379cc67901461051957806382dc1ec4146105675780638456cb59146105ab5780638da5cb5b146105b557610175565b80633f4ba83a116101325780633f4ba83a1461039157806340c10f191461039b57806342966c681461040157806346fbf68e1461042f5780635c975abb1461048b5780636ef8d66d146104ad57610175565b806306fdde031461017a578063095ea7b3146101fd57806318160ddd1461026357806323b872dd14610281578063313ce56714610307578063395093511461032b575b600080fd5b61018261082c565b6040518080602001828103825283818151815260200191508051906020019080838360005b838110156101c25780820151818401526020810190506101a7565b50505050905090810190601f1680156101ef5780820380516001836020036101000a031916815260200191505b509250505060405180910390f35b6102496004803603604081101561021357600080fd5b81019080803573ffffffffffffffffffffffffffffffffffffffff169060200190929190803590602001909291905050506108ce565b604051808215151515815260200191505060405180910390f35b61026b61090d565b6040518082815260200191505060405180910390f35b6102ed6004803603606081101561029757600080fd5b81019080803573ffffffffffffffffffffffffffffffffffffffff169060200190929190803573ffffffffffffffffffffffffffffffffffffffff16906020019092919080359060200190929190505050610917565b604051808215151515815260200191505060405180910390f35b61030f610958565b604051808260ff1660ff16815260200191505060405180910390f35b6103776004803603604081101561034157600080fd5b81019080803573ffffffffffffffffffffffffffffffffffffffff1690602001909291908035906020019092919050505061096f565b604051808215151515815260200191505060405180910390f35b6103996109ae565b005b6103e7600480360360408110156103b157600080fd5b81019080803573ffffffffffffffffffffffffffffffffffffffff16906020019092919080359060200190929190505050610a59565b604051808215151515815260200191505060405180910390f35b61042d6004803603602081101561041757600080fd5b8101908080359060200190929190505050610a9a565b005b6104716004803603602081101561044557600080fd5b81019080803573ffffffffffffffffffffffffffffffffffffffff169060200190929190505050610ad2565b604051808215151515815260200191505060405180910390f35b610493610aef565b604051808215151515815260200191505060405180910390f35b6104b5610b06565b005b6104f9600480360360208110156104cd57600080fd5b81019080803573ffffffffffffffffffffffffffffffffffffffff169060200190929190505050610b11565b6040518082815260200191505060405180910390f35b610517610b5a565b005b6105656004803603604081101561052f57600080fd5b81019080803573ffffffffffffffffffffffffffffffffffffffff16906020019092919080359060200190929190505050610c2c565b005b6105a96004803603602081101561057d57600080fd5b81019080803573ffffffffffffffffffffffffffffffffffffffff169060200190929190505050610c65565b005b6105b3610c83565b005b6105bd610d2f565b604051808273ffffffffffffffffffffffffffffffffffffffff1673ffffffffffffffffffffffffffffffffffffffff16815260200191505060405180910390f35b610607610d59565b604051808215151515815260200191505060405180910390f35b610629610db1565b6040518080602001828103825283818151815260200191508051906020019080838360005b8381101561066957808201518184015260208101905061064e565b50505050905090810190601f1680156106965780820380516001836020036101000a031916815260200191505b509250505060405180910390f35b6106f0600480360360408110156106ba57600080fd5b81019080803573ffffffffffffffffffffffffffffffffffffffff16906020019092919080359060200190929190505050610e53565b604051808215151515815260200191505060405180910390f35b6107566004803603604081101561072057600080fd5b81019080803573ffffffffffffffffffffffffffffffffffffffff16906020019092919080359060200190929190505050610e92565b604051808215151515815260200191505060405180910390f35b6107d26004803603604081101561078657600080fd5b81019080803573ffffffffffffffffffffffffffffffffffffffff169060200190929190803573ffffffffffffffffffffffffffffffffffffffff169060200190929190505050610ed1565b6040518082815260200191505060405180910390f35b61082a600480360360208110156107fe57600080fd5b81019080803573ffffffffffffffffffffffffffffffffffffffff169060200190929190505050610f58565b005b606060008054600181600116156101000203166002900480601f0160208091040260200160405190810160405280929190818152602001828054600181600116156101000203166002900480156108c45780601f10610899576101008083540402835291602001916108c4565b820191906000526020600020905b8154815290600101906020018083116108a757829003601f168201915b5050505050905090565b6000600760009054906101000a900460ff16156108ea57600080fd5b6108f2610d59565b6108fb57600080fd5b6109058383610f75565b905092915050565b6000600554905090565b6000600760009054906101000a900460ff161561093357600080fd5b61093b610d59565b61094457600080fd5b61094f848484610fa3565b90509392505050565b6000600260009054906101000a900460ff16905090565b6000600760009054906101000a900460ff161561098b57600080fd5b610993610d59565b61099c57600080fd5b6109a68383610fd3565b905092915050565b6109b733610ad2565b6109c057600080fd5b600760009054906101000a900460ff166109d957600080fd5b6000600760006101000a81548160ff0219169083151502179055507f5db9ee0a495bf2e6ff9c91a7834c1ba4fdd244a5e8aa4e537bd38aeae4b073aa33604051808273ffffffffffffffffffffffffffffffffffffffff1673ffffffffffffffffffffffffffffffffffffffff16815260200191505060405180910390a1565b6000600760009054906101000a900460ff1615610a7557600080fd5b610a7d610d59565b610a8657600080fd5b610a908383611001565b6001905092915050565b600760009054906101000a900460ff1615610ab457600080fd5b610abc610d59565b610ac557600080fd5b610acf3382611155565b50565b6000610ae882600661116390919063ffffffff16565b9050919050565b6000600760009054906101000a900460ff16905090565b610b0f336111f5565b565b6000600360008373ffffffffffffffffffffffffffffffffffffffff1673ffffffffffffffffffffffffffffffffffffffff168152602001908152602001600020549050919050565b610b62610d59565b610b6b57600080fd5b600073ffffffffffffffffffffffffffffffffffffffff16600760019054906101000a900473ffffffffffffffffffffffffffffffffffffffff1673ffffffffffffffffffffffffffffffffffffffff167f8be0079c531659141344cd1fd0a4f28419497f9722a3daafe3b4186f6b6457e060405160405180910390a36000600760016101000a81548173ffffffffffffffffffffffffffffffffffffffff021916908373ffffffffffffffffffffffffffffffffffffffff160217905550565b600760009054906101000a900460ff1615610c4657600080fd5b610c4e610d59565b610c5757600080fd5b610c618282611155565b5050565b610c6e33610ad2565b610c7757600080fd5b610c808161124f565b50565b610c8c33610ad2565b610c9557600080fd5b600760009054906101000a900460ff1615610caf57600080fd5b6001600760006101000a81548160ff0219169083151502179055507f62e78cea01bee320cd4e420270b5ea74000d11b0c9f74754ebdbfc544b05a25833604051808273ffffffffffffffffffffffffffffffffffffffff1673ffffffffffffffffffffffffffffffffffffffff16815260200191505060405180910390a1565b6000600760019054906101000a900473ffffffffffffffffffffffffffffffffffffffff16905090565b6000600760019054906101000a900473ffffffffffffffffffffffffffffffffffffffff1673ffffffffffffffffffffffffffffffffffffffff163373ffffffffffffffffffffffffffffffffffffffff1614905090565b606060018054600181600116156101000203166002900480601f016020809104026020016040519081016040528092919081815260200182805460018160011615610100020316600290048015610e495780601f10610e1e57610100808354040283529160200191610e49565b820191906000526020600020905b815481529060010190602001808311610e2c57829003601f168201915b5050505050905090565b6000600760009054906101000a900460ff1615610e6f57600080fd5b610e77610d59565b610e8057600080fd5b610e8a83836112a9565b905092915050565b6000600760009054906101000a900460ff1615610eae57600080fd5b610eb6610d59565b610ebf57600080fd5b610ec983836112d7565b905092915050565b6000600460008473ffffffffffffffffffffffffffffffffffffffff1673ffffffffffffffffffffffffffffffffffffffff16815260200190815260200160002060008373ffffffffffffffffffffffffffffffffffffffff1673ffffffffffffffffffffffffffffffffffffffff16815260200190815260200160002054905092915050565b610f60610d59565b610f6957600080fd5b610f7281611305565b50565b6000600760009054906101000a900460ff1615610f9157600080fd5b610f9b83836113ff565b905092915050565b6000600760009054906101000a900460ff1615610fbf57600080fd5b610fca848484611416565b90509392505050565b6000600760009054906101000a900460ff1615610fef57600080fd5b610ff983836114c7565b905092915050565b600073ffffffffffffffffffffffffffffffffffffffff168273ffffffffffffffffffffffffffffffffffffffff16141561103b57600080fd5b6110508160055461156c90919063ffffffff16565b6005819055506110a881600360008573ffffffffffffffffffffffffffffffffffffffff1673ffffffffffffffffffffffffffffffffffffffff1681526020019081526020016000205461156c90919063ffffffff16565b600360008473ffffffffffffffffffffffffffffffffffffffff1673ffffffffffffffffffffffffffffffffffffffff168152602001908152602001600020819055508173ffffffffffffffffffffffffffffffffffffffff16600073ffffffffffffffffffffffffffffffffffffffff167fddf252ad1be2c89b69c2b068fc378daa952ba7f163c4a11628f55a4df523b3ef836040518082815260200191505060405180910390a35050565b61115f828261158b565b5050565b60008073ffffffffffffffffffffffffffffffffffffffff168273ffffffffffffffffffffffffffffffffffffffff16141561119e57600080fd5b8260000160008373ffffffffffffffffffffffffffffffffffffffff1673ffffffffffffffffffffffffffffffffffffffff16815260200190815260200160002060009054906101000a900460ff16905092915050565b61120981600661163290919063ffffffff16565b8073ffffffffffffffffffffffffffffffffffffffff167fcd265ebaf09df2871cc7bd4133404a235ba12eff2041bb89d9c714a2621c7c7e60405160405180910390a250565b6112638160066116dd90919063ffffffff16565b8073ffffffffffffffffffffffffffffffffffffffff167f6719d08c1888103bea251a4ed56406bd0c3e69723c8a1686e017e7bbe159b6f860405160405180910390a250565b6000600760009054906101000a900460ff16156112c557600080fd5b6112cf8383611789565b905092915050565b6000600760009054906101000a900460ff16156112f357600080fd5b6112fd838361182e565b905092915050565b600073ffffffffffffffffffffffffffffffffffffffff168173ffffffffffffffffffffffffffffffffffffffff16141561133f57600080fd5b8073ffffffffffffffffffffffffffffffffffffffff16600760019054906101000a900473ffffffffffffffffffffffffffffffffffffffff1673ffffffffffffffffffffffffffffffffffffffff167f8be0079c531659141344cd1fd0a4f28419497f9722a3daafe3b4186f6b6457e060405160405180910390a380600760016101000a81548173ffffffffffffffffffffffffffffffffffffffff021916908373ffffffffffffffffffffffffffffffffffffffff16021790555050565b600061140c338484611845565b6001905092915050565b60006114238484846119a4565b6114bc84336114b785600460008a73ffffffffffffffffffffffffffffffffffffffff1673ffffffffffffffffffffffffffffffffffffffff16815260200190815260200160002060003373ffffffffffffffffffffffffffffffffffffffff1673ffffffffffffffffffffffffffffffffffffffff16815260200190815260200160002054611b7290919063ffffffff16565b611845565b600190509392505050565b6000611562338461155d85600460003373ffffffffffffffffffffffffffffffffffffffff1673ffffffffffffffffffffffffffffffffffffffff16815260200190815260200160002060008973ffffffffffffffffffffffffffffffffffffffff1673ffffffffffffffffffffffffffffffffffffffff1681526020019081526020016000205461156c90919063ffffffff16565b611845565b6001905092915050565b60008082840190508381101561158157600080fd5b8091505092915050565b6115958282611b92565b61162e823361162984600460008873ffffffffffffffffffffffffffffffffffffffff1673ffffffffffffffffffffffffffffffffffffffff16815260200190815260200160002060003373ffffffffffffffffffffffffffffffffffffffff1673ffffffffffffffffffffffffffffffffffffffff16815260200190815260200160002054611b7290919063ffffffff16565b611845565b5050565b600073ffffffffffffffffffffffffffffffffffffffff168173ffffffffffffffffffffffffffffffffffffffff16141561166c57600080fd5b6116768282611163565b61167f57600080fd5b60008260000160008373ffffffffffffffffffffffffffffffffffffffff1673ffffffffffffffffffffffffffffffffffffffff16815260200190815260200160002060006101000a81548160ff0219169083151502179055505050565b600073ffffffffffffffffffffffffffffffffffffffff168173ffffffffffffffffffffffffffffffffffffffff16141561171757600080fd5b6117218282611163565b1561172b57600080fd5b60018260000160008373ffffffffffffffffffffffffffffffffffffffff1673ffffffffffffffffffffffffffffffffffffffff16815260200190815260200160002060006101000a81548160ff0219169083151502179055505050565b6000611824338461181f85600460003373ffffffffffffffffffffffffffffffffffffffff1673ffffffffffffffffffffffffffffffffffffffff16815260200190815260200160002060008973ffffffffffffffffffffffffffffffffffffffff1673ffffffffffffffffffffffffffffffffffffffff16815260200190815260200160002054611b7290919063ffffffff16565b611845565b6001905092915050565b600061183b3384846119a4565b6001905092915050565b600073ffffffffffffffffffffffffffffffffffffffff168273ffffffffffffffffffffffffffffffffffffffff16141561187f57600080fd5b600073ffffffffffffffffffffffffffffffffffffffff168373ffffffffffffffffffffffffffffffffffffffff1614156118b957600080fd5b80600460008573ffffffffffffffffffffffffffffffffffffffff1673ffffffffffffffffffffffffffffffffffffffff16815260200190815260200160002060008473ffffffffffffffffffffffffffffffffffffffff1673ffffffffffffffffffffffffffffffffffffffff168152602001908152602001600020819055508173ffffffffffffffffffffffffffffffffffffffff168373ffffffffffffffffffffffffffffffffffffffff167f8c5be1e5ebec7d5bd14f71427d1e84f3dd0314c0f7b2291e5b200ac8c7c3b925836040518082815260200191505060405180910390a3505050565b600073ffffffffffffffffffffffffffffffffffffffff168273ffffffffffffffffffffffffffffffffffffffff1614156119de57600080fd5b611a3081600360008673ffffffffffffffffffffffffffffffffffffffff1673ffffffffffffffffffffffffffffffffffffffff16815260200190815260200160002054611b7290919063ffffffff16565b600360008573ffffffffffffffffffffffffffffffffffffffff1673ffffffffffffffffffffffffffffffffffffffff16815260200190815260200160002081905550611ac581600360008573ffffffffffffffffffffffffffffffffffffffff1673ffffffffffffffffffffffffffffffffffffffff1681526020019081526020016000205461156c90919063ffffffff16565b600360008473ffffffffffffffffffffffffffffffffffffffff1673ffffffffffffffffffffffffffffffffffffffff168152602001908152602001600020819055508173ffffffffffffffffffffffffffffffffffffffff168373ffffffffffffffffffffffffffffffffffffffff167fddf252ad1be2c89b69c2b068fc378daa952ba7f163c4a11628f55a4df523b3ef836040518082815260200191505060405180910390a3505050565b600082821115611b8157600080fd5b600082840390508091505092915050565b600073ffffffffffffffffffffffffffffffffffffffff168273ffffffffffffffffffffffffffffffffffffffff161415611bcc57600080fd5b611be181600554611b7290919063ffffffff16565b600581905550611c3981600360008573ffffffffffffffffffffffffffffffffffffffff1673ffffffffffffffffffffffffffffffffffffffff16815260200190815260200160002054611b7290919063ffffffff16565b600360008473ffffffffffffffffffffffffffffffffffffffff1673ffffffffffffffffffffffffffffffffffffffff16815260200190815260200160002081905550600073ffffffffffffffffffffffffffffffffffffffff168273ffffffffffffffffffffffffffffffffffffffff167fddf252ad1be2c89b69c2b068fc378daa952ba7f163c4a11628f55a4df523b3ef836040518082815260200191505060405180910390a3505056fea165627a7a72305820e7abe6e7e5099641aa9c5417fb77052c070d7f25b9b1f9c701f5e55ec0bf6d290029",
  "source": "pragma solidity ^0.5.2;\r\n\r\nimport \"openzeppelin-solidity/contracts/ownership/Ownable.sol\";\r\nimport \"openzeppelin-solidity/contracts/lifecycle/Pausable.sol\";\r\nimport \"openzeppelin-solidity/contracts/math/SafeMath.sol\";\r\nimport \"./YANFToken.sol\";\r\n\r\ncontract YANFManager is Ownable, Pausable {\r\n\r\n  struct Feed {\r\n    uint articlesCount;\r\n    mapping(uint => Article) articles;\r\n    bool initialized;\r\n  }\r\n\r\n  struct Article {\r\n    string title;\r\n    string content_hash;\r\n    bool initialized;\r\n    mapping(address => uint) coauthors;\r\n    mapping(uint => address) coauthorsRanks;\r\n    uint coauthorsCount;\r\n    mapping (uint => address) customers;\r\n    uint customersCount;\r\n    uint price;\r\n  }\r\n\r\n  mapping(uint => Feed) private feeds;\r\n  mapping(address => uint) private feedsIndexes;\r\n  uint private feedsCount = 0;\r\n\r\n  uint private constant MAX_WINDOW = 1000;\r\n  uint public constant fee = 1 finney;\r\n\r\n  address payable feeHolder;\r\n\r\n  YANFToken private tokenContract =\r\n    new YANFToken(\"Yet Another News Feed Token\", \"YANF\", 18);\r\n\r\n  function setFeeReceiver(address payable who)\r\n    public\r\n    onlyOwner\r\n    whenNotPaused\r\n  {\r\n    feeHolder = who;\r\n  }\r\n\r\n  function getFeeReceiver()\r\n    public\r\n    view\r\n    onlyOwner\r\n    whenNotPaused\r\n    returns(address)\r\n  {\r\n    return feeHolder;\r\n  }\r\n\r\n  function publish(string memory title, string memory content_hash,\r\n      address[] memory coauthors, uint[] memory parts, uint price)\r\n    public\r\n    whenNotPaused\r\n    returns(bool)\r\n  {\r\n    if (coauthors.length != parts.length) return false;\r\n\r\n    uint partsSum = 0;\r\n    for (uint i = 0; i < parts.length; i = SafeMath.add(i, 1)) {\r\n      partsSum = SafeMath.add(partsSum, parts[i]);\r\n    }\r\n    if (partsSum > price) {\r\n      return false;\r\n    }\r\n\r\n    if (!feeds[feedsIndexes[msg.sender]].initialized) {\r\n      feedsCount = SafeMath.add(feedsCount, 1);\r\n      feedsIndexes[msg.sender] = SafeMath.sub(feedsCount, 1);\r\n      feeds[feedsIndexes[msg.sender]] = Feed(0, true);\r\n      feeds[feedsIndexes[msg.sender]].articlesCount = 1;\r\n      feeds[feedsIndexes[msg.sender]].articles[0] = Article(title, content_hash, true, coauthors.length, 0, price);\r\n    } else {\r\n      uint oldArticlesCount = feeds[feedsIndexes[msg.sender]].articlesCount;\r\n      feeds[feedsIndexes[msg.sender]].articlesCount = SafeMath.add(oldArticlesCount, 1);\r\n      feeds[feedsIndexes[msg.sender]].articles[oldArticlesCount] = Article(title, content_hash, true, coauthors.length, 0, price);\r\n    }\r\n    return true;\r\n  }\r\n\r\n  function setCoauthorPart(address who, uint articleIndex, uint part)\r\n    public\r\n    whenNotPaused\r\n    returns(bool)\r\n  {\r\n    uint feedIndexOfSender = feedsIndexes[msg.sender];\r\n    if (who == address(0)\r\n        || !feeds[feedIndexOfSender].initialized\r\n        || part >= feeds[feedIndexOfSender].articles[articleIndex].price) {\r\n      return false;\r\n    }\r\n    if (feeds[feedIndexOfSender].articles[articleIndex].coauthors[who] == 0) {\r\n      uint oldCoauthorsCount = feeds[feedIndexOfSender].articles[articleIndex].coauthorsCount;\r\n      feeds[feedIndexOfSender].articles[articleIndex].coauthorsCount = SafeMath.add(oldCoauthorsCount, 1);\r\n      feeds[feedIndexOfSender].articles[articleIndex].coauthorsRanks[oldCoauthorsCount] = who;\r\n    }\r\n    feeds[feedIndexOfSender].articles[articleIndex].coauthors[who] = part;\r\n    return true;\r\n  }\r\n\r\n  function searchArticlesByChosenPredicate\r\n    (\r\n      uint feedIndex, uint articleOffset,\r\n      string memory title, uint price, address coauthor,\r\n      bool titlePredicate, bool pricePredicate, bool coauthorPredicate\r\n    )\r\n    public\r\n    view\r\n    whenNotPaused\r\n    returns(uint[] memory)\r\n  {\r\n    uint[] memory resultArticlesIndexes = new uint[](MAX_WINDOW);\r\n    uint currentArticleIndexCount = 0;\r\n    for (uint j = articleOffset; j < feeds[feedIndex].articlesCount; j = SafeMath.add(j, 1)) {\r\n      if (\r\n        (stringEquals(feeds[feedIndex].articles[j].title, title) && titlePredicate) ||\r\n        (articleHasEqualOrLesserPrice(feedIndex, j, price) && pricePredicate) ||\r\n        (articleContainsCoauthor(feedIndex, j, coauthor) && coauthorPredicate)\r\n      ) {\r\n        resultArticlesIndexes[currentArticleIndexCount] = j;\r\n        currentArticleIndexCount = SafeMath.add(currentArticleIndexCount, 1);\r\n        if (currentArticleIndexCount > MAX_WINDOW) {\r\n          j = SafeMath.add(feeds[feedIndex].articlesCount, 1);\r\n        }\r\n      }\r\n    }\r\n    return resultArticlesIndexes;\r\n  }\r\n\r\n  function searchFeedByAuthor(address author)\r\n    public\r\n    view\r\n    whenNotPaused\r\n    returns(uint feedIndex)\r\n  {\r\n    return feedsIndexes[author];\r\n  }\r\n\r\n  function sendContractFees()\r\n    public\r\n    onlyOwner\r\n    whenNotPaused\r\n    returns(bool)\r\n  {\r\n    feeHolder.transfer(address(this).balance);\r\n    return true;\r\n  }\r\n\r\n  function buy(address author, uint feed, uint article)\r\n    public\r\n    payable\r\n    whenNotPaused\r\n    returns(bool)\r\n  {\r\n    if (feedsIndexes[author] != feed) {\r\n      return false;\r\n    }\r\n    if (!feeds[feed].initialized || !feeds[feed].articles[article].initialized) {\r\n      return false;\r\n    }\r\n    if (feeds[feed].articles[article].price > 0) {\r\n      if (msg.value >= feeds[feed].articles[article].price + fee) {\r\n        feeds[feed].articles[article].customers[feeds[feed].articles[article].customersCount] = msg.sender;\r\n        feeds[feed].articles[article].customersCount += 1;\r\n        uint authorPrice = feeds[feed].articles[article].price;\r\n        for (uint i = 0; i < feeds[feed].articles[article].coauthorsCount; i = SafeMath.add(i, 1)) {\r\n          uint currentCoauthorPrice = feeds[feed].articles[article].coauthors[feeds[feed].articles[article].coauthorsRanks[i]];\r\n          authorPrice = SafeMath.sub(authorPrice, currentCoauthorPrice);\r\n          tokenContract.mint(feeds[feed].articles[article].coauthorsRanks[i], currentCoauthorPrice);\r\n        }\r\n        tokenContract.mint(author, authorPrice);\r\n        return true;\r\n      } else {\r\n        return false;\r\n      }\r\n    } else {\r\n      feeds[feed].articles[article].customers[feeds[feed].articles[article].customersCount] = msg.sender;\r\n      feeds[feed].articles[article].customersCount += 1;\r\n      return true;\r\n    }\r\n  }\r\n\r\n  function receiveRoyalty()\r\n    public\r\n    whenNotPaused\r\n    returns(bool)\r\n  {\r\n    if (tokenContract.balanceOf(msg.sender) == 0) return true;\r\n    msg.sender.transfer(tokenContract.balanceOf(msg.sender));\r\n    tokenContract.burnFrom(msg.sender, tokenContract.balanceOf(msg.sender));\r\n  }\r\n\r\n  function getArticleTitle(uint feedIndex, uint articleIndex)\r\n    public\r\n    view\r\n    whenNotPaused\r\n    returns(string memory)\r\n  {\r\n    return feeds[feedIndex].articles[articleIndex].title;\r\n  }\r\n\r\n  function getArticleContentHash(uint feedIndex, uint articleIndex)\r\n    public\r\n    view\r\n    whenNotPaused\r\n    returns(string memory)\r\n  {\r\n    if (feedsIndexes[msg.sender] == feedIndex\r\n      || isCustomerInArticle(feedIndex, articleIndex, msg.sender)\r\n      || feeds[feedIndex].articles[articleIndex].coauthors[msg.sender] > 0\r\n    ) {\r\n      return feeds[feedIndex].articles[articleIndex].content_hash;\r\n    } else {\r\n      return \"FORBIDDEN\";\r\n    }\r\n  }\r\n\r\n  function getArticlePrice(uint feedIndex, uint articleIndex)\r\n    public\r\n    view\r\n    whenNotPaused\r\n    returns(uint)\r\n  {\r\n    return feeds[feedIndex].articles[articleIndex].price;\r\n  }\r\n\r\n  function getArticleCoauthorsCount(uint feedIndex, uint articleIndex)\r\n    public\r\n    view\r\n    whenNotPaused\r\n    returns(uint)\r\n  {\r\n    return feeds[feedIndex].articles[articleIndex].coauthorsCount;\r\n  }\r\n\r\n  function getArticleCoauthor(uint feedIndex, uint articleIndex, uint coauthorRank)\r\n    public\r\n    view\r\n    whenNotPaused\r\n    returns(address)\r\n  {\r\n    return feeds[feedIndex].articles[articleIndex].coauthorsRanks[coauthorRank];\r\n  }\r\n\r\n  function stringEquals(string memory a, string memory b)\r\n    private\r\n    view\r\n    whenNotPaused\r\n    returns(bool)\r\n  {\r\n    return keccak256(abi.encodePacked(a)) == keccak256(abi.encodePacked(b));\r\n  }\r\n\r\n  function articleContainsCoauthor(uint feed, uint article, address who)\r\n    private\r\n    view\r\n    whenNotPaused\r\n    returns(bool)\r\n  {\r\n    return feeds[feed].articles[article].coauthors[who] != 0;\r\n  }\r\n\r\n  function articleHasEqualOrLesserPrice(uint feed, uint article, uint price)\r\n    private\r\n    view\r\n    whenNotPaused\r\n    returns(bool)\r\n  {\r\n    return feeds[feed].articles[article].price <= price;\r\n  }\r\n\r\n  function isCustomerInArticle(uint feedIndex, uint articleIndex, address customer)\r\n    private\r\n    view\r\n    whenNotPaused\r\n    returns(bool)\r\n  {\r\n    for (uint i = 0; i < feeds[feedIndex].articles[articleIndex].customersCount; i = SafeMath.add(i, 1)) {\r\n      if (feeds[feedIndex].articles[articleIndex].customers[i] == customer) {\r\n        return true;\r\n      }\r\n    }\r\n    return false;\r\n  }\r\n}\r\n",
  "sourcePath": "D:/dev/work/dapp/eth/yanf/contracts/YANFManager.sol",
  "compiler": {
    "name": "solc",
    "version": "0.5.8+commit.23d335f2.Emscripten.clang"
  },
  "schemaVersion": "3.0.6",
  "updatedAt": "2019-05-02T11:19:43.713Z",
  "devdoc": {
    "methods": {
      "isOwner()": {
        "return": "true if `msg.sender` is the owner of the contract."
      },
      "owner()": {
        "return": "the address of the owner."
      },
      "pause()": {
        "details": "called by the owner to pause, triggers stopped state"
      },
      "paused()": {
        "return": "true if the contract is paused, false otherwise."
      },
      "renounceOwnership()": {
        "details": "Allows the current owner to relinquish control of the contract. It will not be possible to call the functions with the `onlyOwner` modifier anymore."
      },
      "transferOwnership(address)": {
        "details": "Allows the current owner to transfer control of the contract to a newOwner.",
        "params": {
          "newOwner": "The address to transfer ownership to."
        }
      },
      "unpause()": {
        "details": "called by the owner to unpause, returns to normal state"
      }
    }
  },
  "userdoc": {
    "methods": {
      "renounceOwnership()": {
        "notice": "Renouncing ownership will leave the contract without an owner, thereby removing any functionality that is only available to the owner."
      }
    }
  }
}