{
  "contractName": "YANFManagerSimplified",
  "abi": [
    {
      "constant": false,
      "inputs": [],
      "name": "unpause",
      "outputs": [],
      "payable": false,
      "stateMutability": "nonpayable",
      "type": "function",
      "signature": "0x3f4ba83a"
    },
    {
      "constant": true,
      "inputs": [
        {
          "name": "account",
          "type": "address"
        }
      ],
      "name": "isPauser",
      "outputs": [
        {
          "name": "",
          "type": "bool"
        }
      ],
      "payable": false,
      "stateMutability": "view",
      "type": "function",
      "signature": "0x46fbf68e"
    },
    {
      "constant": true,
      "inputs": [],
      "name": "paused",
      "outputs": [
        {
          "name": "",
          "type": "bool"
        }
      ],
      "payable": false,
      "stateMutability": "view",
      "type": "function",
      "signature": "0x5c975abb"
    },
    {
      "constant": false,
      "inputs": [],
      "name": "renouncePauser",
      "outputs": [],
      "payable": false,
      "stateMutability": "nonpayable",
      "type": "function",
      "signature": "0x6ef8d66d"
    },
    {
      "constant": false,
      "inputs": [],
      "name": "renounceOwnership",
      "outputs": [],
      "payable": false,
      "stateMutability": "nonpayable",
      "type": "function",
      "signature": "0x715018a6"
    },
    {
      "constant": false,
      "inputs": [
        {
          "name": "account",
          "type": "address"
        }
      ],
      "name": "addPauser",
      "outputs": [],
      "payable": false,
      "stateMutability": "nonpayable",
      "type": "function",
      "signature": "0x82dc1ec4"
    },
    {
      "constant": false,
      "inputs": [],
      "name": "pause",
      "outputs": [],
      "payable": false,
      "stateMutability": "nonpayable",
      "type": "function",
      "signature": "0x8456cb59"
    },
    {
      "constant": true,
      "inputs": [],
      "name": "owner",
      "outputs": [
        {
          "name": "",
          "type": "address"
        }
      ],
      "payable": false,
      "stateMutability": "view",
      "type": "function",
      "signature": "0x8da5cb5b"
    },
    {
      "constant": true,
      "inputs": [],
      "name": "isOwner",
      "outputs": [
        {
          "name": "",
          "type": "bool"
        }
      ],
      "payable": false,
      "stateMutability": "view",
      "type": "function",
      "signature": "0x8f32d59b"
    },
    {
      "constant": false,
      "inputs": [
        {
          "name": "newOwner",
          "type": "address"
        }
      ],
      "name": "transferOwnership",
      "outputs": [],
      "payable": false,
      "stateMutability": "nonpayable",
      "type": "function",
      "signature": "0xf2fde38b"
    },
    {
      "payable": true,
      "stateMutability": "payable",
      "type": "fallback"
    },
    {
      "anonymous": false,
      "inputs": [
        {
          "indexed": false,
          "name": "feedOwner",
          "type": "address"
        },
        {
          "indexed": false,
          "name": "articleIndex",
          "type": "uint256"
        },
        {
          "indexed": false,
          "name": "sender",
          "type": "address"
        },
        {
          "indexed": false,
          "name": "result",
          "type": "bool"
        },
        {
          "indexed": false,
          "name": "price",
          "type": "uint256"
        },
        {
          "indexed": false,
          "name": "givenAmount",
          "type": "uint256"
        }
      ],
      "name": "Bought",
      "type": "event",
      "signature": "0x0f2d6eb573101f00def996d1097900ac011ed4a57c0f389fdc02fb24ca6d04e0"
    },
    {
      "anonymous": false,
      "inputs": [
        {
          "indexed": false,
          "name": "who",
          "type": "address"
        },
        {
          "indexed": false,
          "name": "amount",
          "type": "uint256"
        },
        {
          "indexed": false,
          "name": "success",
          "type": "bool"
        }
      ],
      "name": "Withdraw",
      "type": "event",
      "signature": "0x039d3e7ccc0d8edf3fb8206bf9f58888c4cced8c157c730a2407a54aad7c865c"
    },
    {
      "anonymous": false,
      "inputs": [
        {
          "indexed": false,
          "name": "account",
          "type": "address"
        }
      ],
      "name": "Paused",
      "type": "event",
      "signature": "0x62e78cea01bee320cd4e420270b5ea74000d11b0c9f74754ebdbfc544b05a258"
    },
    {
      "anonymous": false,
      "inputs": [
        {
          "indexed": false,
          "name": "account",
          "type": "address"
        }
      ],
      "name": "Unpaused",
      "type": "event",
      "signature": "0x5db9ee0a495bf2e6ff9c91a7834c1ba4fdd244a5e8aa4e537bd38aeae4b073aa"
    },
    {
      "anonymous": false,
      "inputs": [
        {
          "indexed": true,
          "name": "account",
          "type": "address"
        }
      ],
      "name": "PauserAdded",
      "type": "event",
      "signature": "0x6719d08c1888103bea251a4ed56406bd0c3e69723c8a1686e017e7bbe159b6f8"
    },
    {
      "anonymous": false,
      "inputs": [
        {
          "indexed": true,
          "name": "account",
          "type": "address"
        }
      ],
      "name": "PauserRemoved",
      "type": "event",
      "signature": "0xcd265ebaf09df2871cc7bd4133404a235ba12eff2041bb89d9c714a2621c7c7e"
    },
    {
      "anonymous": false,
      "inputs": [
        {
          "indexed": true,
          "name": "previousOwner",
          "type": "address"
        },
        {
          "indexed": true,
          "name": "newOwner",
          "type": "address"
        }
      ],
      "name": "OwnershipTransferred",
      "type": "event",
      "signature": "0x8be0079c531659141344cd1fd0a4f28419497f9722a3daafe3b4186f6b6457e0"
    },
    {
      "constant": true,
      "inputs": [],
      "name": "getYanfBalance",
      "outputs": [
        {
          "name": "",
          "type": "uint256"
        }
      ],
      "payable": false,
      "stateMutability": "view",
      "type": "function",
      "signature": "0x62ec89f5"
    },
    {
      "constant": false,
      "inputs": [
        {
          "name": "amount",
          "type": "uint256"
        }
      ],
      "name": "withdraw",
      "outputs": [],
      "payable": false,
      "stateMutability": "nonpayable",
      "type": "function",
      "signature": "0x2e1a7d4d"
    },
    {
      "constant": true,
      "inputs": [
        {
          "name": "feedOwner",
          "type": "address"
        }
      ],
      "name": "getArticleCount",
      "outputs": [
        {
          "name": "",
          "type": "uint256"
        }
      ],
      "payable": false,
      "stateMutability": "view",
      "type": "function",
      "signature": "0xb51b2e0d"
    },
    {
      "constant": true,
      "inputs": [
        {
          "name": "feedOwner",
          "type": "address"
        },
        {
          "name": "index",
          "type": "uint256"
        }
      ],
      "name": "getArticleTitleByIndex",
      "outputs": [
        {
          "name": "",
          "type": "string"
        }
      ],
      "payable": false,
      "stateMutability": "view",
      "type": "function",
      "signature": "0xcfb7fac0"
    },
    {
      "constant": true,
      "inputs": [
        {
          "name": "feedOwner",
          "type": "address"
        },
        {
          "name": "index",
          "type": "uint256"
        }
      ],
      "name": "getArticleContentHashByIndex",
      "outputs": [
        {
          "name": "",
          "type": "string"
        }
      ],
      "payable": false,
      "stateMutability": "view",
      "type": "function",
      "signature": "0x19966533"
    },
    {
      "constant": false,
      "inputs": [
        {
          "name": "feedOwner",
          "type": "address"
        },
        {
          "name": "index",
          "type": "uint256"
        }
      ],
      "name": "buy",
      "outputs": [],
      "payable": true,
      "stateMutability": "payable",
      "type": "function",
      "signature": "0xcce7ec13"
    },
    {
      "constant": true,
      "inputs": [
        {
          "name": "feedOwner",
          "type": "address"
        },
        {
          "name": "index",
          "type": "uint256"
        }
      ],
      "name": "getArticlePriceByIndex",
      "outputs": [
        {
          "name": "",
          "type": "uint256"
        }
      ],
      "payable": false,
      "stateMutability": "view",
      "type": "function",
      "signature": "0x713b0827"
    },
    {
      "constant": false,
      "inputs": [
        {
          "name": "title",
          "type": "string"
        },
        {
          "name": "contentHash",
          "type": "string"
        },
        {
          "name": "price",
          "type": "uint256"
        }
      ],
      "name": "publish",
      "outputs": [
        {
          "name": "",
          "type": "bool"
        }
      ],
      "payable": true,
      "stateMutability": "payable",
      "type": "function",
      "signature": "0x8b63d6a3"
    }
  ],
  "bytecode": "0x608060405266038d7ea4c68000600655336000806101000a81548173ffffffffffffffffffffffffffffffffffffffff021916908373ffffffffffffffffffffffffffffffffffffffff1602179055506000809054906101000a900473ffffffffffffffffffffffffffffffffffffffff1673ffffffffffffffffffffffffffffffffffffffff16600073ffffffffffffffffffffffffffffffffffffffff167f8be0079c531659141344cd1fd0a4f28419497f9722a3daafe3b4186f6b6457e060405160405180910390a3620000e53362000106640100000000026401000000009004565b6000600260006101000a81548160ff021916908315150217905550620002c2565b6200012a816001620001706401000000000262001abf179091906401000000009004565b8073ffffffffffffffffffffffffffffffffffffffff167f6719d08c1888103bea251a4ed56406bd0c3e69723c8a1686e017e7bbe159b6f860405160405180910390a250565b600073ffffffffffffffffffffffffffffffffffffffff168173ffffffffffffffffffffffffffffffffffffffff161415620001ab57600080fd5b620001c682826200022f640100000000026401000000009004565b15620001d157600080fd5b60018260000160008373ffffffffffffffffffffffffffffffffffffffff1673ffffffffffffffffffffffffffffffffffffffff16815260200190815260200160002060006101000a81548160ff0219169083151502179055505050565b60008073ffffffffffffffffffffffffffffffffffffffff168273ffffffffffffffffffffffffffffffffffffffff1614156200026b57600080fd5b8260000160008373ffffffffffffffffffffffffffffffffffffffff1673ffffffffffffffffffffffffffffffffffffffff16815260200190815260200160002060009054906101000a900460ff16905092915050565b611c3c80620002d26000396000f3fe608060405260043610610126576000357c01000000000000000000000000000000000000000000000000000000009004806382dc1ec4116100b25780638f32d59b116100815780638f32d59b146105e1578063b51b2e0d14610610578063cce7ec1314610675578063cfb7fac0146106c3578063f2fde38b1461079757610126565b806382dc1ec4146103ae5780638456cb59146103ff5780638b63d6a3146104165780638da5cb5b1461058a57610126565b80635c975abb116100f95780635c975abb146102b757806362ec89f5146102e65780636ef8d66d14610311578063713b082714610328578063715018a61461039757610126565b806319966533146101285780632e1a7d4d146101fc5780633f4ba83a1461023757806346fbf68e1461024e575b005b34801561013457600080fd5b506101816004803603604081101561014b57600080fd5b81019080803573ffffffffffffffffffffffffffffffffffffffff169060200190929190803590602001909291905050506107e8565b6040518080602001828103825283818151815260200191508051906020019080838360005b838110156101c15780820151818401526020810190506101a6565b50505050905090810190601f1680156101ee5780820380516001836020036101000a031916815260200191505b509250505060405180910390f35b34801561020857600080fd5b506102356004803603602081101561021f57600080fd5b8101908080359060200190929190505050610a20565b005b34801561024357600080fd5b5061024c610c32565b005b34801561025a57600080fd5b5061029d6004803603602081101561027157600080fd5b81019080803573ffffffffffffffffffffffffffffffffffffffff169060200190929190505050610cdd565b604051808215151515815260200191505060405180910390f35b3480156102c357600080fd5b506102cc610cfa565b604051808215151515815260200191505060405180910390f35b3480156102f257600080fd5b506102fb610d11565b6040518082815260200191505060405180910390f35b34801561031d57600080fd5b50610326610d58565b005b34801561033457600080fd5b506103816004803603604081101561034b57600080fd5b81019080803573ffffffffffffffffffffffffffffffffffffffff16906020019092919080359060200190929190505050610d63565b6040518082815260200191505060405180910390f35b3480156103a357600080fd5b506103ac610dc4565b005b3480156103ba57600080fd5b506103fd600480360360208110156103d157600080fd5b81019080803573ffffffffffffffffffffffffffffffffffffffff169060200190929190505050610e94565b005b34801561040b57600080fd5b50610414610eb2565b005b6105706004803603606081101561042c57600080fd5b810190808035906020019064010000000081111561044957600080fd5b82018360208201111561045b57600080fd5b8035906020019184600183028401116401000000008311171561047d57600080fd5b91908080601f016020809104026020016040519081016040528093929190818152602001838380828437600081840152601f19601f820116905080830192505050505050509192919290803590602001906401000000008111156104e057600080fd5b8201836020820111156104f257600080fd5b8035906020019184600183028401116401000000008311171561051457600080fd5b91908080601f016020809104026020016040519081016040528093929190818152602001838380828437600081840152601f19601f82011690508083019250505050505050919291929080359060200190929190505050610f5e565b604051808215151515815260200191505060405180910390f35b34801561059657600080fd5b5061059f611295565b604051808273ffffffffffffffffffffffffffffffffffffffff1673ffffffffffffffffffffffffffffffffffffffff16815260200191505060405180910390f35b3480156105ed57600080fd5b506105f66112be565b604051808215151515815260200191505060405180910390f35b34801561061c57600080fd5b5061065f6004803603602081101561063357600080fd5b81019080803573ffffffffffffffffffffffffffffffffffffffff169060200190929190505050611315565b6040518082815260200191505060405180910390f35b6106c16004803603604081101561068b57600080fd5b81019080803573ffffffffffffffffffffffffffffffffffffffff16906020019092919080359060200190929190505050611361565b005b3480156106cf57600080fd5b5061071c600480360360408110156106e657600080fd5b81019080803573ffffffffffffffffffffffffffffffffffffffff16906020019092919080359060200190929190505050611681565b6040518080602001828103825283818151815260200191508051906020019080838360005b8381101561075c578082015181840152602081019050610741565b50505050905090810190601f1680156107895780820380516001836020036101000a031916815260200191505b509250505060405180910390f35b3480156107a357600080fd5b506107e6600480360360208110156107ba57600080fd5b81019080803573ffffffffffffffffffffffffffffffffffffffff16906020019092919050505061177a565b005b60606000600360008573ffffffffffffffffffffffffffffffffffffffff1673ffffffffffffffffffffffffffffffffffffffff16815260200190815260200160002060010160008481526020019081526020016000206002015414806108e65750600460003373ffffffffffffffffffffffffffffffffffffffff1673ffffffffffffffffffffffffffffffffffffffff16815260200190815260200160002060008473ffffffffffffffffffffffffffffffffffffffff1673ffffffffffffffffffffffffffffffffffffffff168152602001908152602001600020600083815260200190815260200160002060009054906101000a900460ff165b156109e157600360008473ffffffffffffffffffffffffffffffffffffffff1673ffffffffffffffffffffffffffffffffffffffff16815260200190815260200160002060010160008381526020019081526020016000206001018054600181600116156101000203166002900480601f0160208091040260200160405190810160405280929190818152602001828054600181600116156101000203166002900480156109d55780601f106109aa576101008083540402835291602001916109d5565b820191906000526020600020905b8154815290600101906020018083116109b857829003601f168201915b50505050509050610a1a565b6040518060400160405280600981526020017f464f5242494444454e000000000000000000000000000000000000000000000081525090505b92915050565b600560003373ffffffffffffffffffffffffffffffffffffffff1673ffffffffffffffffffffffffffffffffffffffff168152602001908152602001600020548111610bb657610aaf600560003373ffffffffffffffffffffffffffffffffffffffff1673ffffffffffffffffffffffffffffffffffffffff1681526020019081526020016000205482611797565b600560003373ffffffffffffffffffffffffffffffffffffffff1673ffffffffffffffffffffffffffffffffffffffff168152602001908152602001600020819055503373ffffffffffffffffffffffffffffffffffffffff166108fc829081150290604051600060405180830381858888f19350505050158015610b38573d6000803e3d6000fd5b507f039d3e7ccc0d8edf3fb8206bf9f58888c4cced8c157c730a2407a54aad7c865c33826001604051808473ffffffffffffffffffffffffffffffffffffffff1673ffffffffffffffffffffffffffffffffffffffff16815260200183815260200182151515158152602001935050505060405180910390a1610c2f565b7f039d3e7ccc0d8edf3fb8206bf9f58888c4cced8c157c730a2407a54aad7c865c33826000604051808473ffffffffffffffffffffffffffffffffffffffff1673ffffffffffffffffffffffffffffffffffffffff16815260200183815260200182151515158152602001935050505060405180910390a15b50565b610c3b33610cdd565b610c4457600080fd5b600260009054906101000a900460ff16610c5d57600080fd5b6000600260006101000a81548160ff0219169083151502179055507f5db9ee0a495bf2e6ff9c91a7834c1ba4fdd244a5e8aa4e537bd38aeae4b073aa33604051808273ffffffffffffffffffffffffffffffffffffffff1673ffffffffffffffffffffffffffffffffffffffff16815260200191505060405180910390a1565b6000610cf38260016117b790919063ffffffff16565b9050919050565b6000600260009054906101000a900460ff16905090565b6000600560003373ffffffffffffffffffffffffffffffffffffffff1673ffffffffffffffffffffffffffffffffffffffff16815260200190815260200160002054905090565b610d6133611849565b565b6000600360008473ffffffffffffffffffffffffffffffffffffffff1673ffffffffffffffffffffffffffffffffffffffff168152602001908152602001600020600101600083815260200190815260200160002060020154905092915050565b610dcc6112be565b610dd557600080fd5b600073ffffffffffffffffffffffffffffffffffffffff166000809054906101000a900473ffffffffffffffffffffffffffffffffffffffff1673ffffffffffffffffffffffffffffffffffffffff167f8be0079c531659141344cd1fd0a4f28419497f9722a3daafe3b4186f6b6457e060405160405180910390a360008060006101000a81548173ffffffffffffffffffffffffffffffffffffffff021916908373ffffffffffffffffffffffffffffffffffffffff160217905550565b610e9d33610cdd565b610ea657600080fd5b610eaf816118a3565b50565b610ebb33610cdd565b610ec457600080fd5b600260009054906101000a900460ff1615610ede57600080fd5b6001600260006101000a81548160ff0219169083151502179055507f62e78cea01bee320cd4e420270b5ea74000d11b0c9f74754ebdbfc544b05a25833604051808273ffffffffffffffffffffffffffffffffffffffff1673ffffffffffffffffffffffffffffffffffffffff16815260200191505060405180910390a1565b6000600654341015610f73576000905061128e565b6000821115611065576001600460003373ffffffffffffffffffffffffffffffffffffffff1673ffffffffffffffffffffffffffffffffffffffff16815260200190815260200160002060003373ffffffffffffffffffffffffffffffffffffffff1673ffffffffffffffffffffffffffffffffffffffff1681526020019081526020016000206000600360003373ffffffffffffffffffffffffffffffffffffffff1673ffffffffffffffffffffffffffffffffffffffff16815260200190815260200160002060000154815260200190815260200160002060006101000a81548160ff0219169083151502179055505b604051806060016040528085815260200184815260200183815250600360003373ffffffffffffffffffffffffffffffffffffffff1673ffffffffffffffffffffffffffffffffffffffff1681526020019081526020016000206001016000600360003373ffffffffffffffffffffffffffffffffffffffff1673ffffffffffffffffffffffffffffffffffffffff1681526020019081526020016000206000015481526020019081526020016000206000820151816000019080519060200190611131929190611b6b565b50602082015181600101908051906020019061114e929190611b6b565b50604082015181600201559050506111a9600360003373ffffffffffffffffffffffffffffffffffffffff1673ffffffffffffffffffffffffffffffffffffffff1681526020019081526020016000206000015460016118fd565b600360003373ffffffffffffffffffffffffffffffffffffffff1673ffffffffffffffffffffffffffffffffffffffff1681526020019081526020016000206000018190555061123f600560006111fe611295565b73ffffffffffffffffffffffffffffffffffffffff1673ffffffffffffffffffffffffffffffffffffffff16815260200190815260200160002054346118fd565b6005600061124b611295565b73ffffffffffffffffffffffffffffffffffffffff1673ffffffffffffffffffffffffffffffffffffffff16815260200190815260200160002081905550600190505b9392505050565b60008060009054906101000a900473ffffffffffffffffffffffffffffffffffffffff16905090565b60008060009054906101000a900473ffffffffffffffffffffffffffffffffffffffff1673ffffffffffffffffffffffffffffffffffffffff163373ffffffffffffffffffffffffffffffffffffffff1614905090565b6000600360008373ffffffffffffffffffffffffffffffffffffffff1673ffffffffffffffffffffffffffffffffffffffff168152602001908152602001600020600001549050919050565b6000600360008473ffffffffffffffffffffffffffffffffffffffff1673ffffffffffffffffffffffffffffffffffffffff16815260200190815260200160002060010160008381526020019081526020016000206002015490508034101580156113cc5750600081115b156115c0576001600460003373ffffffffffffffffffffffffffffffffffffffff1673ffffffffffffffffffffffffffffffffffffffff16815260200190815260200160002060008573ffffffffffffffffffffffffffffffffffffffff1673ffffffffffffffffffffffffffffffffffffffff168152602001908152602001600020600084815260200190815260200160002060006101000a81548160ff0219169083151502179055507f0f2d6eb573101f00def996d1097900ac011ed4a57c0f389fdc02fb24ca6d04e083833360018534604051808773ffffffffffffffffffffffffffffffffffffffff1673ffffffffffffffffffffffffffffffffffffffff1681526020018681526020018573ffffffffffffffffffffffffffffffffffffffff1673ffffffffffffffffffffffffffffffffffffffff16815260200184151515158152602001838152602001828152602001965050505050505060405180910390a161157c600560008573ffffffffffffffffffffffffffffffffffffffff1673ffffffffffffffffffffffffffffffffffffffff16815260200190815260200160002054346118fd565b600560008573ffffffffffffffffffffffffffffffffffffffff1673ffffffffffffffffffffffffffffffffffffffff168152602001908152602001600020819055505b7f0f2d6eb573101f00def996d1097900ac011ed4a57c0f389fdc02fb24ca6d04e083833360008534604051808773ffffffffffffffffffffffffffffffffffffffff1673ffffffffffffffffffffffffffffffffffffffff1681526020018681526020018573ffffffffffffffffffffffffffffffffffffffff1673ffffffffffffffffffffffffffffffffffffffff16815260200184151515158152602001838152602001828152602001965050505050505060405180910390a1505050565b6060600360008473ffffffffffffffffffffffffffffffffffffffff1673ffffffffffffffffffffffffffffffffffffffff16815260200190815260200160002060010160008381526020019081526020016000206000018054600181600116156101000203166002900480601f01602080910402602001604051908101604052809291908181526020018280546001816001161561010002031660029004801561176d5780601f106117425761010080835404028352916020019161176d565b820191906000526020600020905b81548152906001019060200180831161175057829003601f168201915b5050505050905092915050565b6117826112be565b61178b57600080fd5b6117948161191c565b50565b6000828211156117a657600080fd5b600082840390508091505092915050565b60008073ffffffffffffffffffffffffffffffffffffffff168273ffffffffffffffffffffffffffffffffffffffff1614156117f257600080fd5b8260000160008373ffffffffffffffffffffffffffffffffffffffff1673ffffffffffffffffffffffffffffffffffffffff16815260200190815260200160002060009054906101000a900460ff16905092915050565b61185d816001611a1490919063ffffffff16565b8073ffffffffffffffffffffffffffffffffffffffff167fcd265ebaf09df2871cc7bd4133404a235ba12eff2041bb89d9c714a2621c7c7e60405160405180910390a250565b6118b7816001611abf90919063ffffffff16565b8073ffffffffffffffffffffffffffffffffffffffff167f6719d08c1888103bea251a4ed56406bd0c3e69723c8a1686e017e7bbe159b6f860405160405180910390a250565b60008082840190508381101561191257600080fd5b8091505092915050565b600073ffffffffffffffffffffffffffffffffffffffff168173ffffffffffffffffffffffffffffffffffffffff16141561195657600080fd5b8073ffffffffffffffffffffffffffffffffffffffff166000809054906101000a900473ffffffffffffffffffffffffffffffffffffffff1673ffffffffffffffffffffffffffffffffffffffff167f8be0079c531659141344cd1fd0a4f28419497f9722a3daafe3b4186f6b6457e060405160405180910390a3806000806101000a81548173ffffffffffffffffffffffffffffffffffffffff021916908373ffffffffffffffffffffffffffffffffffffffff16021790555050565b600073ffffffffffffffffffffffffffffffffffffffff168173ffffffffffffffffffffffffffffffffffffffff161415611a4e57600080fd5b611a5882826117b7565b611a6157600080fd5b60008260000160008373ffffffffffffffffffffffffffffffffffffffff1673ffffffffffffffffffffffffffffffffffffffff16815260200190815260200160002060006101000a81548160ff0219169083151502179055505050565b600073ffffffffffffffffffffffffffffffffffffffff168173ffffffffffffffffffffffffffffffffffffffff161415611af957600080fd5b611b0382826117b7565b15611b0d57600080fd5b60018260000160008373ffffffffffffffffffffffffffffffffffffffff1673ffffffffffffffffffffffffffffffffffffffff16815260200190815260200160002060006101000a81548160ff0219169083151502179055505050565b828054600181600116156101000203166002900490600052602060002090601f016020900481019282601f10611bac57805160ff1916838001178555611bda565b82800160010185558215611bda579182015b82811115611bd9578251825591602001919060010190611bbe565b5b509050611be79190611beb565b5090565b611c0d91905b80821115611c09576000816000905550600101611bf1565b5090565b9056fea165627a7a72305820408ca8e25d8245f32d7bfcd4fc1a0844cffae6c54c22fe8d0b285bd58aa4fc2e0029",
  "source": "pragma solidity ^0.5.2;\r\n\r\nimport \"openzeppelin-solidity/contracts/ownership/Ownable.sol\";\r\nimport \"openzeppelin-solidity/contracts/lifecycle/Pausable.sol\";\r\nimport \"openzeppelin-solidity/contracts/math/SafeMath.sol\";\r\nimport \"./YANFToken.sol\";\r\n\r\ncontract YANFManagerSimplified is Ownable, Pausable {\r\n\r\n  struct Article {\r\n    string title;\r\n    string contentHash;\r\n    uint price;\r\n  }\r\n\r\n  struct Feed {\r\n    uint articleCount;\r\n    mapping(uint => Article) articles;\r\n  }\r\n\r\n  event Bought(address feedOwner, uint articleIndex, address sender, bool result, uint price, uint givenAmount);\r\n  event Withdraw(address who, uint amount, bool success);\r\n\r\n  mapping(address => Feed) private feeds;\r\n\r\n  mapping(address => mapping(address => mapping(uint => bool))) customers;\r\n\r\n  mapping(address => uint) balances;\r\n\r\n  uint private publishPrice = 1 finney;\r\n\r\n  function getYanfBalance()\r\n    public\r\n    view\r\n    returns(uint)\r\n  {\r\n    return balances[msg.sender];\r\n  }\r\n\r\n  function withdraw(uint amount)\r\n    public\r\n  {\r\n    if (amount <= balances[msg.sender]) {\r\n      balances[msg.sender] = SafeMath.sub(balances[msg.sender], amount);\r\n      msg.sender.transfer(amount);\r\n      emit Withdraw(msg.sender, amount, true);\r\n    } else {\r\n      emit Withdraw(msg.sender, amount, false);\r\n    }\r\n  }\r\n\r\n  function getArticleCount(address feedOwner)\r\n    public\r\n    view\r\n    returns(uint)\r\n  {\r\n    return feeds[feedOwner].articleCount;\r\n  }\r\n\r\n  function getArticleTitleByIndex(address feedOwner, uint index)\r\n    public\r\n    view\r\n    returns(string memory)\r\n  {\r\n    return feeds[feedOwner].articles[index].title;\r\n  }\r\n\r\n  function getArticleContentHashByIndex(address feedOwner, uint index)\r\n    public\r\n    view\r\n    returns(string memory)\r\n  {\r\n    if (feeds[feedOwner].articles[index].price == 0 ||\r\n        customers[msg.sender][feedOwner][index]) {\r\n      return feeds[feedOwner].articles[index].contentHash;\r\n    }\r\n    return \"FORBIDDEN\";\r\n  }\r\n\r\n  function buy(address feedOwner, uint index)\r\n    public\r\n    payable\r\n  {\r\n    uint price = feeds[feedOwner].articles[index].price;\r\n    if (msg.value >= price && price > 0) {\r\n      customers[msg.sender][feedOwner][index] = true;\r\n      emit Bought(feedOwner, index, msg.sender, true, price, msg.value);\r\n      balances[feedOwner] = SafeMath.add(balances[feedOwner], msg.value);\r\n    }\r\n    emit Bought(feedOwner, index, msg.sender, false, price, msg.value);\r\n  }\r\n\r\n  function getArticlePriceByIndex(address feedOwner, uint index)\r\n    public\r\n    view\r\n    returns(uint)\r\n  {\r\n    return feeds[feedOwner].articles[index].price;\r\n  }\r\n\r\n  function publish(string memory title, string memory contentHash, uint price)\r\n    public\r\n    payable\r\n    returns(bool)\r\n  {\r\n    if (msg.value < publishPrice) {\r\n      return false;\r\n    }\r\n    if (price > 0) {\r\n      customers[msg.sender][msg.sender][feeds[msg.sender].articleCount] = true;\r\n    }\r\n    feeds[msg.sender].articles[feeds[msg.sender].articleCount] = Article(title, contentHash, price);\r\n    feeds[msg.sender].articleCount = SafeMath.add(feeds[msg.sender].articleCount, 1);\r\n    balances[owner()] = SafeMath.add(balances[owner()], msg.value);\r\n    return true;\r\n  }\r\n\r\n  function () external payable {}\r\n\r\n}\r\n",
  "sourcePath": "D:/dev/work/dapp/eth/yanf/contracts/YANFManagerSimplified.sol",
  "compiler": {
    "name": "solc",
    "version": "0.5.8+commit.23d335f2.Emscripten.clang"
  },
  "schemaVersion": "3.0.6",
  "updatedAt": "2019-05-11T18:03:51.387Z",
  "devdoc": {
    "methods": {
      "isOwner()": {
        "return": "true if `msg.sender` is the owner of the contract."
      },
      "owner()": {
        "return": "the address of the owner."
      },
      "pause()": {
        "details": "called by the owner to pause, triggers stopped state"
      },
      "paused()": {
        "return": "true if the contract is paused, false otherwise."
      },
      "renounceOwnership()": {
        "details": "Allows the current owner to relinquish control of the contract. It will not be possible to call the functions with the `onlyOwner` modifier anymore."
      },
      "transferOwnership(address)": {
        "details": "Allows the current owner to transfer control of the contract to a newOwner.",
        "params": {
          "newOwner": "The address to transfer ownership to."
        }
      },
      "unpause()": {
        "details": "called by the owner to unpause, returns to normal state"
      }
    }
  },
  "userdoc": {
    "methods": {
      "renounceOwnership()": {
        "notice": "Renouncing ownership will leave the contract without an owner, thereby removing any functionality that is only available to the owner."
      }
    }
  }
}