{
  "contractName": "YANFManager",
  "abi": [
    {
      "constant": false,
      "inputs": [],
      "name": "unpause",
      "outputs": [],
      "payable": false,
      "stateMutability": "nonpayable",
      "type": "function",
      "signature": "0x3f4ba83a"
    },
    {
      "constant": true,
      "inputs": [
        {
          "name": "account",
          "type": "address"
        }
      ],
      "name": "isPauser",
      "outputs": [
        {
          "name": "",
          "type": "bool"
        }
      ],
      "payable": false,
      "stateMutability": "view",
      "type": "function",
      "signature": "0x46fbf68e"
    },
    {
      "constant": true,
      "inputs": [],
      "name": "paused",
      "outputs": [
        {
          "name": "",
          "type": "bool"
        }
      ],
      "payable": false,
      "stateMutability": "view",
      "type": "function",
      "signature": "0x5c975abb"
    },
    {
      "constant": false,
      "inputs": [],
      "name": "renouncePauser",
      "outputs": [],
      "payable": false,
      "stateMutability": "nonpayable",
      "type": "function",
      "signature": "0x6ef8d66d"
    },
    {
      "constant": false,
      "inputs": [],
      "name": "renounceOwnership",
      "outputs": [],
      "payable": false,
      "stateMutability": "nonpayable",
      "type": "function",
      "signature": "0x715018a6"
    },
    {
      "constant": false,
      "inputs": [
        {
          "name": "account",
          "type": "address"
        }
      ],
      "name": "addPauser",
      "outputs": [],
      "payable": false,
      "stateMutability": "nonpayable",
      "type": "function",
      "signature": "0x82dc1ec4"
    },
    {
      "constant": false,
      "inputs": [],
      "name": "pause",
      "outputs": [],
      "payable": false,
      "stateMutability": "nonpayable",
      "type": "function",
      "signature": "0x8456cb59"
    },
    {
      "constant": true,
      "inputs": [],
      "name": "owner",
      "outputs": [
        {
          "name": "",
          "type": "address"
        }
      ],
      "payable": false,
      "stateMutability": "view",
      "type": "function",
      "signature": "0x8da5cb5b"
    },
    {
      "constant": true,
      "inputs": [],
      "name": "isOwner",
      "outputs": [
        {
          "name": "",
          "type": "bool"
        }
      ],
      "payable": false,
      "stateMutability": "view",
      "type": "function",
      "signature": "0x8f32d59b"
    },
    {
      "constant": true,
      "inputs": [],
      "name": "fee",
      "outputs": [
        {
          "name": "",
          "type": "uint256"
        }
      ],
      "payable": false,
      "stateMutability": "view",
      "type": "function",
      "signature": "0xddca3f43"
    },
    {
      "constant": false,
      "inputs": [
        {
          "name": "newOwner",
          "type": "address"
        }
      ],
      "name": "transferOwnership",
      "outputs": [],
      "payable": false,
      "stateMutability": "nonpayable",
      "type": "function",
      "signature": "0xf2fde38b"
    },
    {
      "anonymous": false,
      "inputs": [
        {
          "indexed": false,
          "name": "account",
          "type": "address"
        }
      ],
      "name": "Paused",
      "type": "event",
      "signature": "0x62e78cea01bee320cd4e420270b5ea74000d11b0c9f74754ebdbfc544b05a258"
    },
    {
      "anonymous": false,
      "inputs": [
        {
          "indexed": false,
          "name": "account",
          "type": "address"
        }
      ],
      "name": "Unpaused",
      "type": "event",
      "signature": "0x5db9ee0a495bf2e6ff9c91a7834c1ba4fdd244a5e8aa4e537bd38aeae4b073aa"
    },
    {
      "anonymous": false,
      "inputs": [
        {
          "indexed": true,
          "name": "account",
          "type": "address"
        }
      ],
      "name": "PauserAdded",
      "type": "event",
      "signature": "0x6719d08c1888103bea251a4ed56406bd0c3e69723c8a1686e017e7bbe159b6f8"
    },
    {
      "anonymous": false,
      "inputs": [
        {
          "indexed": true,
          "name": "account",
          "type": "address"
        }
      ],
      "name": "PauserRemoved",
      "type": "event",
      "signature": "0xcd265ebaf09df2871cc7bd4133404a235ba12eff2041bb89d9c714a2621c7c7e"
    },
    {
      "anonymous": false,
      "inputs": [
        {
          "indexed": true,
          "name": "previousOwner",
          "type": "address"
        },
        {
          "indexed": true,
          "name": "newOwner",
          "type": "address"
        }
      ],
      "name": "OwnershipTransferred",
      "type": "event",
      "signature": "0x8be0079c531659141344cd1fd0a4f28419497f9722a3daafe3b4186f6b6457e0"
    },
    {
      "constant": false,
      "inputs": [
        {
          "name": "who",
          "type": "address"
        }
      ],
      "name": "setFeeReceiver",
      "outputs": [],
      "payable": false,
      "stateMutability": "nonpayable",
      "type": "function",
      "signature": "0xefdcd974"
    },
    {
      "constant": false,
      "inputs": [
        {
          "name": "title",
          "type": "string"
        },
        {
          "name": "content_hash",
          "type": "string"
        },
        {
          "name": "coauthors",
          "type": "address[]"
        },
        {
          "name": "parts",
          "type": "uint256[]"
        },
        {
          "name": "price",
          "type": "uint256"
        }
      ],
      "name": "publish",
      "outputs": [
        {
          "name": "",
          "type": "bool"
        }
      ],
      "payable": false,
      "stateMutability": "nonpayable",
      "type": "function",
      "signature": "0x69b6c8c2"
    },
    {
      "constant": false,
      "inputs": [
        {
          "name": "who",
          "type": "address"
        },
        {
          "name": "articleIndex",
          "type": "uint256"
        },
        {
          "name": "part",
          "type": "uint256"
        }
      ],
      "name": "setCoauthorPart",
      "outputs": [
        {
          "name": "",
          "type": "bool"
        }
      ],
      "payable": false,
      "stateMutability": "nonpayable",
      "type": "function",
      "signature": "0x0c791252"
    },
    {
      "constant": false,
      "inputs": [
        {
          "name": "who",
          "type": "address"
        },
        {
          "name": "articleIndex",
          "type": "uint256"
        },
        {
          "name": "part",
          "type": "uint256"
        }
      ],
      "name": "addCoauthorPart",
      "outputs": [
        {
          "name": "",
          "type": "bool"
        }
      ],
      "payable": false,
      "stateMutability": "nonpayable",
      "type": "function",
      "signature": "0xd7678828"
    },
    {
      "constant": true,
      "inputs": [
        {
          "name": "title",
          "type": "string"
        }
      ],
      "name": "searchArticlesByTitle",
      "outputs": [
        {
          "name": "resArticlesIndexes",
          "type": "uint256[]"
        },
        {
          "name": "resFeedsIndexes",
          "type": "uint256[]"
        }
      ],
      "payable": false,
      "stateMutability": "view",
      "type": "function",
      "signature": "0x26d7a641"
    },
    {
      "constant": true,
      "inputs": [
        {
          "name": "coauthor",
          "type": "address"
        }
      ],
      "name": "searchArticleByCoauthor",
      "outputs": [
        {
          "name": "resArticlesIndexes",
          "type": "uint256[]"
        },
        {
          "name": "resFeedsIndexes",
          "type": "uint256[]"
        }
      ],
      "payable": false,
      "stateMutability": "view",
      "type": "function",
      "signature": "0x19d9447c"
    },
    {
      "constant": true,
      "inputs": [
        {
          "name": "price",
          "type": "uint256"
        }
      ],
      "name": "searchArticleByPrice",
      "outputs": [
        {
          "name": "resArticlesIndexes",
          "type": "uint256[]"
        },
        {
          "name": "resFeedsIndexes",
          "type": "uint256[]"
        }
      ],
      "payable": false,
      "stateMutability": "view",
      "type": "function",
      "signature": "0x401f8511"
    },
    {
      "constant": true,
      "inputs": [
        {
          "name": "author",
          "type": "address"
        }
      ],
      "name": "searchFeedByAuthor",
      "outputs": [
        {
          "name": "feedIndex",
          "type": "uint256"
        }
      ],
      "payable": false,
      "stateMutability": "view",
      "type": "function",
      "signature": "0x9c48202c"
    },
    {
      "constant": false,
      "inputs": [],
      "name": "sendContractFees",
      "outputs": [
        {
          "name": "",
          "type": "bool"
        }
      ],
      "payable": false,
      "stateMutability": "nonpayable",
      "type": "function",
      "signature": "0xfdad0b47"
    },
    {
      "constant": false,
      "inputs": [
        {
          "name": "feed",
          "type": "uint256"
        },
        {
          "name": "article",
          "type": "uint256"
        }
      ],
      "name": "buy",
      "outputs": [
        {
          "name": "",
          "type": "bool"
        }
      ],
      "payable": true,
      "stateMutability": "payable",
      "type": "function",
      "signature": "0xd6febde8"
    },
    {
      "constant": false,
      "inputs": [],
      "name": "receiveRoyalty",
      "outputs": [
        {
          "name": "",
          "type": "bool"
        }
      ],
      "payable": false,
      "stateMutability": "nonpayable",
      "type": "function",
      "signature": "0x497265cd"
    }
  ],
  "bytecode": "0x6080604052600060055560126040516200001990620003a9565b8080602001806020018460ff1681526020018381038352601b8152602001807f59657420416e6f74686572204e657773204665656420546f6b656e0000000000815250602001838103825260048152602001807f59414e46000000000000000000000000000000000000000000000000000000008152506020019350505050604051809103906000f080158015620000b5573d6000803e3d6000fd5b50600760006101000a81548173ffffffffffffffffffffffffffffffffffffffff021916908373ffffffffffffffffffffffffffffffffffffffff160217905550336000806101000a81548173ffffffffffffffffffffffffffffffffffffffff021916908373ffffffffffffffffffffffffffffffffffffffff1602179055506000809054906101000a900473ffffffffffffffffffffffffffffffffffffffff1673ffffffffffffffffffffffffffffffffffffffff16600073ffffffffffffffffffffffffffffffffffffffff167f8be0079c531659141344cd1fd0a4f28419497f9722a3daafe3b4186f6b6457e060405160405180910390a3620001cc33620001ed640100000000026401000000009004565b6000600260006101000a81548160ff021916908315150217905550620003b7565b62000211816001620002576401000000000262002f0c179091906401000000009004565b8073ffffffffffffffffffffffffffffffffffffffff167f6719d08c1888103bea251a4ed56406bd0c3e69723c8a1686e017e7bbe159b6f860405160405180910390a250565b600073ffffffffffffffffffffffffffffffffffffffff168173ffffffffffffffffffffffffffffffffffffffff1614156200029257600080fd5b620002ad828262000316640100000000026401000000009004565b15620002b857600080fd5b60018260000160008373ffffffffffffffffffffffffffffffffffffffff1673ffffffffffffffffffffffffffffffffffffffff16815260200190815260200160002060006101000a81548160ff0219169083151502179055505050565b60008073ffffffffffffffffffffffffffffffffffffffff168273ffffffffffffffffffffffffffffffffffffffff1614156200035257600080fd5b8260000160008373ffffffffffffffffffffffffffffffffffffffff1673ffffffffffffffffffffffffffffffffffffffff16815260200190815260200160002060009054906101000a900460ff16905092915050565b6121c8806200345083390190565b61308980620003c76000396000f3fe608060405260043610610152576000357c01000000000000000000000000000000000000000000000000000000009004806382dc1ec4116100c8578063d6febde81161008c578063d6febde814610a07578063d767882814610a57578063ddca3f4314610ad4578063efdcd97414610aff578063f2fde38b14610b50578063fdad0b4714610ba157610152565b806382dc1ec4146108b45780638456cb59146109055780638da5cb5b1461091c5780638f32d59b146109735780639c48202c146109a257610152565b806346fbf68e1161011a57806346fbf68e14610516578063497265cd1461057f5780635c975abb146105ae57806369b6c8c2146105dd5780636ef8d66d14610886578063715018a61461089d57610152565b80630c7912521461015757806319d9447c146101d457806326d7a641146102c25780633f4ba83a14610427578063401f85111461043e575b600080fd5b34801561016357600080fd5b506101ba6004803603606081101561017a57600080fd5b81019080803573ffffffffffffffffffffffffffffffffffffffff1690602001909291908035906020019092919080359060200190929190505050610bd0565b604051808215151515815260200191505060405180910390f35b3480156101e057600080fd5b50610223600480360360208110156101f757600080fd5b81019080803573ffffffffffffffffffffffffffffffffffffffff169060200190929190505050610de4565b604051808060200180602001838103835285818151815260200191508051906020019060200280838360005b8381101561026a57808201518184015260208101905061024f565b50505050905001838103825284818151815260200191508051906020019060200280838360005b838110156102ac578082015181840152602081019050610291565b5050505090500194505050505060405180910390f35b3480156102ce57600080fd5b50610388600480360360208110156102e557600080fd5b810190808035906020019064010000000081111561030257600080fd5b82018360208201111561031457600080fd5b8035906020019184600183028401116401000000008311171561033657600080fd5b91908080601f016020809104026020016040519081016040528093929190818152602001838380828437600081840152601f19601f820116905080830192505050505050509192919290505050610f2c565b604051808060200180602001838103835285818151815260200191508051906020019060200280838360005b838110156103cf5780820151818401526020810190506103b4565b50505050905001838103825284818151815260200191508051906020019060200280838360005b838110156104115780820151818401526020810190506103f6565b5050505090500194505050505060405180910390f35b34801561043357600080fd5b5061043c611135565b005b34801561044a57600080fd5b506104776004803603602081101561046157600080fd5b81019080803590602001909291905050506111e0565b604051808060200180602001838103835285818151815260200191508051906020019060200280838360005b838110156104be5780820151818401526020810190506104a3565b50505050905001838103825284818151815260200191508051906020019060200280838360005b838110156105005780820151818401526020810190506104e5565b5050505090500194505050505060405180910390f35b34801561052257600080fd5b506105656004803603602081101561053957600080fd5b81019080803573ffffffffffffffffffffffffffffffffffffffff169060200190929190505050611328565b604051808215151515815260200191505060405180910390f35b34801561058b57600080fd5b50610594611345565b604051808215151515815260200191505060405180910390f35b3480156105ba57600080fd5b506105c361175f565b604051808215151515815260200191505060405180910390f35b3480156105e957600080fd5b5061086c600480360360a081101561060057600080fd5b810190808035906020019064010000000081111561061d57600080fd5b82018360208201111561062f57600080fd5b8035906020019184600183028401116401000000008311171561065157600080fd5b91908080601f016020809104026020016040519081016040528093929190818152602001838380828437600081840152601f19601f820116905080830192505050505050509192919290803590602001906401000000008111156106b457600080fd5b8201836020820111156106c657600080fd5b803590602001918460018302840111640100000000831117156106e857600080fd5b91908080601f016020809104026020016040519081016040528093929190818152602001838380828437600081840152601f19601f8201169050808301925050505050505091929192908035906020019064010000000081111561074b57600080fd5b82018360208201111561075d57600080fd5b8035906020019184602083028401116401000000008311171561077f57600080fd5b919080806020026020016040519081016040528093929190818152602001838360200280828437600081840152601f19601f820116905080830192505050505050509192919290803590602001906401000000008111156107df57600080fd5b8201836020820111156107f157600080fd5b8035906020019184602083028401116401000000008311171561081357600080fd5b919080806020026020016040519081016040528093929190818152602001838360200280828437600081840152601f19601f82011690508083019250505050505050919291929080359060200190929190505050611776565b604051808215151515815260200191505060405180910390f35b34801561089257600080fd5b5061089b611ea7565b005b3480156108a957600080fd5b506108b2611eb2565b005b3480156108c057600080fd5b50610903600480360360208110156108d757600080fd5b81019080803573ffffffffffffffffffffffffffffffffffffffff169060200190929190505050611f82565b005b34801561091157600080fd5b5061091a611fa0565b005b34801561092857600080fd5b5061093161204c565b604051808273ffffffffffffffffffffffffffffffffffffffff1673ffffffffffffffffffffffffffffffffffffffff16815260200191505060405180910390f35b34801561097f57600080fd5b50610988612075565b604051808215151515815260200191505060405180910390f35b3480156109ae57600080fd5b506109f1600480360360208110156109c557600080fd5b81019080803573ffffffffffffffffffffffffffffffffffffffff1690602001909291905050506120cc565b6040518082815260200191505060405180910390f35b610a3d60048036036040811015610a1d57600080fd5b810190808035906020019092919080359060200190929190505050612115565b604051808215151515815260200191505060405180910390f35b348015610a6357600080fd5b50610aba60048036036060811015610a7a57600080fd5b81019080803573ffffffffffffffffffffffffffffffffffffffff1690602001909291908035906020019092919080359060200190929190505050612706565b604051808215151515815260200191505060405180910390f35b348015610ae057600080fd5b50610ae961292f565b6040518082815260200191505060405180910390f35b348015610b0b57600080fd5b50610b4e60048036036020811015610b2257600080fd5b81019080803573ffffffffffffffffffffffffffffffffffffffff16906020019092919050505061293a565b005b348015610b5c57600080fd5b50610b9f60048036036020811015610b7357600080fd5b81019080803573ffffffffffffffffffffffffffffffffffffffff16906020019092919050505061298f565b005b348015610bad57600080fd5b50610bb66129ac565b604051808215151515815260200191505060405180910390f35b60008073ffffffffffffffffffffffffffffffffffffffff168473ffffffffffffffffffffffffffffffffffffffff161480610c4b57506000600460003373ffffffffffffffffffffffffffffffffffffffff1673ffffffffffffffffffffffffffffffffffffffff16815260200190815260200160002054145b80610cab5750600060036000600460003373ffffffffffffffffffffffffffffffffffffffff1673ffffffffffffffffffffffffffffffffffffffff16815260200190815260200160002054815260200190815260200160002060000154145b80610d1f575060036000600460003373ffffffffffffffffffffffffffffffffffffffff1673ffffffffffffffffffffffffffffffffffffffff1681526020019081526020016000205481526020019081526020016000206001016000848152602001908152602001600020600801548210155b15610d2d5760009050610ddd565b8160036000600460003373ffffffffffffffffffffffffffffffffffffffff1673ffffffffffffffffffffffffffffffffffffffff168152602001908152602001600020548152602001908152602001600020600101600085815260200190815260200160002060030160008673ffffffffffffffffffffffffffffffffffffffff1673ffffffffffffffffffffffffffffffffffffffff16815260200190815260200160002081905550600190505b9392505050565b60608060606103e8604051908082528060200260200182016040528015610e1a5781602001602082028038833980820191505090505b50905060606103e8604051908082528060200260200182016040528015610e505781602001602082028038833980820191505090505b5090506000809050600080905060008090505b610e706005546001612a46565b8111610f1c5760008090505b6003600083815260200190815260200160002060000154811015610f0957610ea582828b612a66565b15610ef75781858481518110610eb757fe5b602002602001018181525050610ece836001612adc565b925080868581518110610edd57fe5b602002602001018181525050610ef4846001612adc565b93505b610f02816001612adc565b9050610e7c565b50610f15816001612adc565b9050610e63565b5083839550955050505050915091565b60608060606103e8604051908082528060200260200182016040528015610f625781602001602082028038833980820191505090505b50905060606103e8604051908082528060200260200182016040528015610f985781602001602082028038833980820191505090505b5090506000809050600080905060008090505b610fb86005546001612a46565b81116111255760008090505b6003600083815260200190815260200160002060000154811015611112576110ae6003600084815260200190815260200160002060010160008381526020019081526020016000206000018054600181600116156101000203166002900480601f0160208091040260200160405190810160405280929190818152602001828054600181600116156101000203166002900480156110a35780601f10611078576101008083540402835291602001916110a3565b820191906000526020600020905b81548152906001019060200180831161108657829003601f168201915b50505050508a612afb565b1561110057818584815181106110c057fe5b6020026020010181815250506110d7836001612adc565b9250808685815181106110e657fe5b6020026020010181815250506110fd846001612adc565b93505b61110b816001612adc565b9050610fc4565b5061111e816001612adc565b9050610fab565b5083839550955050505050915091565b61113e33611328565b61114757600080fd5b600260009054906101000a900460ff1661116057600080fd5b6000600260006101000a81548160ff0219169083151502179055507f5db9ee0a495bf2e6ff9c91a7834c1ba4fdd244a5e8aa4e537bd38aeae4b073aa33604051808273ffffffffffffffffffffffffffffffffffffffff1673ffffffffffffffffffffffffffffffffffffffff16815260200191505060405180910390a1565b60608060606103e86040519080825280602002602001820160405280156112165781602001602082028038833980820191505090505b50905060606103e860405190808252806020026020018201604052801561124c5781602001602082028038833980820191505090505b5090506000809050600080905060008090505b61126c6005546001612a46565b81116113185760008090505b6003600083815260200190815260200160002060000154811015611305576112a182828b612bea565b156112f357818584815181106112b357fe5b6020026020010181815250506112ca836001612adc565b9250808685815181106112d957fe5b6020026020010181815250506112f0846001612adc565b93505b6112fe816001612adc565b9050611278565b50611311816001612adc565b905061125f565b5083839550955050505050915091565b600061133e826001612c2390919063ffffffff16565b9050919050565b600080600760009054906101000a900473ffffffffffffffffffffffffffffffffffffffff1673ffffffffffffffffffffffffffffffffffffffff166370a08231336040518263ffffffff167c0100000000000000000000000000000000000000000000000000000000028152600401808273ffffffffffffffffffffffffffffffffffffffff1673ffffffffffffffffffffffffffffffffffffffff16815260200191505060206040518083038186803b15801561140357600080fd5b505afa158015611417573d6000803e3d6000fd5b505050506040513d602081101561142d57600080fd5b8101908080519060200190929190505050141561144d576001905061175c565b3373ffffffffffffffffffffffffffffffffffffffff166108fc600760009054906101000a900473ffffffffffffffffffffffffffffffffffffffff1673ffffffffffffffffffffffffffffffffffffffff166370a08231336040518263ffffffff167c0100000000000000000000000000000000000000000000000000000000028152600401808273ffffffffffffffffffffffffffffffffffffffff1673ffffffffffffffffffffffffffffffffffffffff16815260200191505060206040518083038186803b15801561152257600080fd5b505afa158015611536573d6000803e3d6000fd5b505050506040513d602081101561154c57600080fd5b81019080805190602001909291905050509081150290604051600060405180830381858888f19350505050158015611588573d6000803e3d6000fd5b50600760009054906101000a900473ffffffffffffffffffffffffffffffffffffffff1673ffffffffffffffffffffffffffffffffffffffff166379cc679033600760009054906101000a900473ffffffffffffffffffffffffffffffffffffffff1673ffffffffffffffffffffffffffffffffffffffff166370a08231336040518263ffffffff167c0100000000000000000000000000000000000000000000000000000000028152600401808273ffffffffffffffffffffffffffffffffffffffff1673ffffffffffffffffffffffffffffffffffffffff16815260200191505060206040518083038186803b15801561168357600080fd5b505afa158015611697573d6000803e3d6000fd5b505050506040513d60208110156116ad57600080fd5b81019080805190602001909291905050506040518363ffffffff167c0100000000000000000000000000000000000000000000000000000000028152600401808373ffffffffffffffffffffffffffffffffffffffff1673ffffffffffffffffffffffffffffffffffffffff16815260200182815260200192505050600060405180830381600087803b15801561174357600080fd5b505af1158015611757573d6000803e3d6000fd5b505050505b90565b6000600260009054906101000a900460ff16905090565b6000825184511461178a5760009050611e9e565b600080905060008090505b84518110156117c8578481815181106117aa57fe5b6020026020010151820191506117c1816001612adc565b9050611795565b50828111156117db576000915050611e9e565b6000600460003373ffffffffffffffffffffffffffffffffffffffff1673ffffffffffffffffffffffffffffffffffffffff168152602001908152602001600020541415611ae8576118306005546001612adc565b60058190555060006118456005546001612a46565b9050600061186a60036000848152602001908152602001600020600001546001612a46565b9050600160036000848152602001908152602001600020600001819055506040518060c001604052808a815260200189815260200160011515815260200188518152602001600081526020018681525060036000848152602001908152602001600020600101600083815260200190815260200160002060008201518160000190805190602001906118fd929190612fb8565b50602082015181600101908051906020019061191a929190612fb8565b5060408201518160020160006101000a81548160ff021916908315150217905550606082015181600501556080820151816007015560a0820151816008015590505060008090505b8751811015611a9c5786818151811061197757fe5b602002602001015160036000858152602001908152602001600020600101600084815260200190815260200160002060030160008a84815181106119b757fe5b602002602001015173ffffffffffffffffffffffffffffffffffffffff1673ffffffffffffffffffffffffffffffffffffffff16815260200190815260200160002081905550878181518110611a0957fe5b6020026020010151600360008581526020019081526020016000206001016000848152602001908152602001600020600401600083815260200190815260200160002060006101000a81548173ffffffffffffffffffffffffffffffffffffffff021916908373ffffffffffffffffffffffffffffffffffffffff160217905550611a95816001612adc565b9050611962565b5081600460003373ffffffffffffffffffffffffffffffffffffffff1673ffffffffffffffffffffffffffffffffffffffff168152602001908152602001600020819055505050611e98565b6000611b4a60036000600460003373ffffffffffffffffffffffffffffffffffffffff1673ffffffffffffffffffffffffffffffffffffffff168152602001908152602001600020548152602001908152602001600020600001546001612adc565b90508060036000600460003373ffffffffffffffffffffffffffffffffffffffff1673ffffffffffffffffffffffffffffffffffffffff168152602001908152602001600020548152602001908152602001600020600001819055506040518060c0016040528089815260200188815260200160011515815260200187518152602001600081526020018581525060036000600460003373ffffffffffffffffffffffffffffffffffffffff1673ffffffffffffffffffffffffffffffffffffffff1681526020019081526020016000205481526020019081526020016000206001016000611c3a846001612a46565b81526020019081526020016000206000820151816000019080519060200190611c64929190612fb8565b506020820151816001019080519060200190611c81929190612fb8565b5060408201518160020160006101000a81548160ff021916908315150217905550606082015181600501556080820151816007015560a0820151816008015590505060008090505b8651811015611e9557858181518110611cde57fe5b602002602001015160036000600460003373ffffffffffffffffffffffffffffffffffffffff1673ffffffffffffffffffffffffffffffffffffffff1681526020019081526020016000205481526020019081526020016000206001016000611d48856001612a46565b81526020019081526020016000206003016000898481518110611d6757fe5b602002602001015173ffffffffffffffffffffffffffffffffffffffff1673ffffffffffffffffffffffffffffffffffffffff16815260200190815260200160002081905550868181518110611db957fe5b602002602001015160036000600460003373ffffffffffffffffffffffffffffffffffffffff1673ffffffffffffffffffffffffffffffffffffffff1681526020019081526020016000205481526020019081526020016000206001016000611e23856001612a46565b8152602001908152602001600020600401600083815260200190815260200160002060006101000a81548173ffffffffffffffffffffffffffffffffffffffff021916908373ffffffffffffffffffffffffffffffffffffffff160217905550611e8e816001612adc565b9050611cc9565b50505b60019150505b95945050505050565b611eb033612cb5565b565b611eba612075565b611ec357600080fd5b600073ffffffffffffffffffffffffffffffffffffffff166000809054906101000a900473ffffffffffffffffffffffffffffffffffffffff1673ffffffffffffffffffffffffffffffffffffffff167f8be0079c531659141344cd1fd0a4f28419497f9722a3daafe3b4186f6b6457e060405160405180910390a360008060006101000a81548173ffffffffffffffffffffffffffffffffffffffff021916908373ffffffffffffffffffffffffffffffffffffffff160217905550565b611f8b33611328565b611f9457600080fd5b611f9d81612d0f565b50565b611fa933611328565b611fb257600080fd5b600260009054906101000a900460ff1615611fcc57600080fd5b6001600260006101000a81548160ff0219169083151502179055507f62e78cea01bee320cd4e420270b5ea74000d11b0c9f74754ebdbfc544b05a25833604051808273ffffffffffffffffffffffffffffffffffffffff1673ffffffffffffffffffffffffffffffffffffffff16815260200191505060405180910390a1565b60008060009054906101000a900473ffffffffffffffffffffffffffffffffffffffff16905090565b60008060009054906101000a900473ffffffffffffffffffffffffffffffffffffffff1673ffffffffffffffffffffffffffffffffffffffff163373ffffffffffffffffffffffffffffffffffffffff1614905090565b6000600460008373ffffffffffffffffffffffffffffffffffffffff1673ffffffffffffffffffffffffffffffffffffffff168152602001908152602001600020549050919050565b60008060036000858152602001908152602001600020600101600084815260200190815260200160002060080154111561261e5766038d7ea4c68000600360008581526020019081526020016000206001016000848152602001908152602001600020600801540134106126155733600360008581526020019081526020016000206001016000848152602001908152602001600020600601600060036000878152602001908152602001600020600101600086815260200190815260200160002060070154815260200190815260200160002060006101000a81548173ffffffffffffffffffffffffffffffffffffffff021916908373ffffffffffffffffffffffffffffffffffffffff160217905550600160036000858152602001908152602001600020600101600084815260200190815260200160002060070160008282540192505081905550600060036000858152602001908152602001600020600101600084815260200190815260200160002060080154905060008090505b600360008681526020019081526020016000206001016000858152602001908152602001600020600501548110156125095760006003600087815260200190815260200160002060010160008681526020019081526020016000206003016000600360008981526020019081526020016000206001016000888152602001908152602001600020600401600085815260200190815260200160002060009054906101000a900473ffffffffffffffffffffffffffffffffffffffff1673ffffffffffffffffffffffffffffffffffffffff1673ffffffffffffffffffffffffffffffffffffffff1681526020019081526020016000205490506123988382612a46565b9250600760009054906101000a900473ffffffffffffffffffffffffffffffffffffffff1673ffffffffffffffffffffffffffffffffffffffff166340c10f19600360008981526020019081526020016000206001016000888152602001908152602001600020600401600085815260200190815260200160002060009054906101000a900473ffffffffffffffffffffffffffffffffffffffff16836040518363ffffffff167c0100000000000000000000000000000000000000000000000000000000028152600401808373ffffffffffffffffffffffffffffffffffffffff1673ffffffffffffffffffffffffffffffffffffffff16815260200182815260200192505050602060405180830381600087803b1580156124ba57600080fd5b505af11580156124ce573d6000803e3d6000fd5b505050506040513d60208110156124e457600080fd5b81019080805190602001909291905050505050612502816001612adc565b9050612295565b50600760009054906101000a900473ffffffffffffffffffffffffffffffffffffffff1673ffffffffffffffffffffffffffffffffffffffff166340c10f1933836040518363ffffffff167c0100000000000000000000000000000000000000000000000000000000028152600401808373ffffffffffffffffffffffffffffffffffffffff1673ffffffffffffffffffffffffffffffffffffffff16815260200182815260200192505050602060405180830381600087803b1580156125cf57600080fd5b505af11580156125e3573d6000803e3d6000fd5b505050506040513d60208110156125f957600080fd5b8101908080519060200190929190505050506001915050612700565b60009050612700565b33600360008581526020019081526020016000206001016000848152602001908152602001600020600601600060036000878152602001908152602001600020600101600086815260200190815260200160002060070154815260200190815260200160002060006101000a81548173ffffffffffffffffffffffffffffffffffffffff021916908373ffffffffffffffffffffffffffffffffffffffff160217905550600160036000858152602001908152602001600020600101600084815260200190815260200160002060070160008282540192505081905550600190505b92915050565b6000612713848484610bd0565b6127205760009050612928565b61279460036000600460003373ffffffffffffffffffffffffffffffffffffffff1673ffffffffffffffffffffffffffffffffffffffff1681526020019081526020016000205481526020019081526020016000206001016000858152602001908152602001600020600501546001612adc565b60036000600460003373ffffffffffffffffffffffffffffffffffffffff1673ffffffffffffffffffffffffffffffffffffffff1681526020019081526020016000205481526020019081526020016000206001016000858152602001908152602001600020600501819055508360036000600460003373ffffffffffffffffffffffffffffffffffffffff1673ffffffffffffffffffffffffffffffffffffffff1681526020019081526020016000205481526020019081526020016000206001016000858152602001908152602001600020600401600060036000600460003373ffffffffffffffffffffffffffffffffffffffff1673ffffffffffffffffffffffffffffffffffffffff168152602001908152602001600020548152602001908152602001600020600101600087815260200190815260200160002060050154815260200190815260200160002060006101000a81548173ffffffffffffffffffffffffffffffffffffffff021916908373ffffffffffffffffffffffffffffffffffffffff160217905550600190505b9392505050565b66038d7ea4c6800081565b612942612075565b61294b57600080fd5b80600660006101000a81548173ffffffffffffffffffffffffffffffffffffffff021916908373ffffffffffffffffffffffffffffffffffffffff16021790555050565b612997612075565b6129a057600080fd5b6129a981612d69565b50565b60006129b6612075565b6129bf57600080fd5b600660009054906101000a900473ffffffffffffffffffffffffffffffffffffffff1673ffffffffffffffffffffffffffffffffffffffff166108fc3073ffffffffffffffffffffffffffffffffffffffff16319081150290604051600060405180830381858888f19350505050158015612a3e573d6000803e3d6000fd5b506001905090565b600082821115612a5557600080fd5b600082840390508091505092915050565b60008060036000868152602001908152602001600020600101600085815260200190815260200160002060030160008473ffffffffffffffffffffffffffffffffffffffff1673ffffffffffffffffffffffffffffffffffffffff16815260200190815260200160002054141590509392505050565b600080828401905083811015612af157600080fd5b8091505092915050565b6000816040516020018082805190602001908083835b60208310612b345780518252602082019150602081019050602083039250612b11565b6001836020036101000a03801982511681845116808217855250505050505090500191505060405160208183030381529060405280519060200120836040516020018082805190602001908083835b60208310612ba65780518252602082019150602081019050602083039250612b83565b6001836020036101000a0380198251168184511680821785525050505050509050019150506040516020818303038152906040528051906020012014905092915050565b60008160036000868152602001908152602001600020600101600085815260200190815260200160002060080154111590509392505050565b60008073ffffffffffffffffffffffffffffffffffffffff168273ffffffffffffffffffffffffffffffffffffffff161415612c5e57600080fd5b8260000160008373ffffffffffffffffffffffffffffffffffffffff1673ffffffffffffffffffffffffffffffffffffffff16815260200190815260200160002060009054906101000a900460ff16905092915050565b612cc9816001612e6190919063ffffffff16565b8073ffffffffffffffffffffffffffffffffffffffff167fcd265ebaf09df2871cc7bd4133404a235ba12eff2041bb89d9c714a2621c7c7e60405160405180910390a250565b612d23816001612f0c90919063ffffffff16565b8073ffffffffffffffffffffffffffffffffffffffff167f6719d08c1888103bea251a4ed56406bd0c3e69723c8a1686e017e7bbe159b6f860405160405180910390a250565b600073ffffffffffffffffffffffffffffffffffffffff168173ffffffffffffffffffffffffffffffffffffffff161415612da357600080fd5b8073ffffffffffffffffffffffffffffffffffffffff166000809054906101000a900473ffffffffffffffffffffffffffffffffffffffff1673ffffffffffffffffffffffffffffffffffffffff167f8be0079c531659141344cd1fd0a4f28419497f9722a3daafe3b4186f6b6457e060405160405180910390a3806000806101000a81548173ffffffffffffffffffffffffffffffffffffffff021916908373ffffffffffffffffffffffffffffffffffffffff16021790555050565b600073ffffffffffffffffffffffffffffffffffffffff168173ffffffffffffffffffffffffffffffffffffffff161415612e9b57600080fd5b612ea58282612c23565b612eae57600080fd5b60008260000160008373ffffffffffffffffffffffffffffffffffffffff1673ffffffffffffffffffffffffffffffffffffffff16815260200190815260200160002060006101000a81548160ff0219169083151502179055505050565b600073ffffffffffffffffffffffffffffffffffffffff168173ffffffffffffffffffffffffffffffffffffffff161415612f4657600080fd5b612f508282612c23565b15612f5a57600080fd5b60018260000160008373ffffffffffffffffffffffffffffffffffffffff1673ffffffffffffffffffffffffffffffffffffffff16815260200190815260200160002060006101000a81548160ff0219169083151502179055505050565b828054600181600116156101000203166002900490600052602060002090601f016020900481019282601f10612ff957805160ff1916838001178555613027565b82800160010185558215613027579182015b8281111561302657825182559160200191906001019061300b565b5b5090506130349190613038565b5090565b61305a91905b8082111561305657600081600090555060010161303e565b5090565b9056fea165627a7a72305820f1e31515724299ba0fb6c0efb82867a66bdb59b36eec852ba8c16d3cbdaa7817002960806040523480156200001157600080fd5b50604051620021c8380380620021c8833981018060405260608110156200003757600080fd5b8101908080516401000000008111156200005057600080fd5b828101905060208101848111156200006757600080fd5b81518560018202830111640100000000821117156200008557600080fd5b50509291906020018051640100000000811115620000a257600080fd5b82810190506020810184811115620000b957600080fd5b8151856001820283011164010000000082111715620000d757600080fd5b505092919060200180519060200190929190505050828282826000908051906020019062000107929190620003f7565b50816001908051906020019062000120929190620003f7565b5080600260006101000a81548160ff021916908360ff16021790555050505062000159336200023b640100000000026401000000009004565b6000600760006101000a81548160ff02191690831515021790555033600760016101000a81548173ffffffffffffffffffffffffffffffffffffffff021916908373ffffffffffffffffffffffffffffffffffffffff160217905550600760019054906101000a900473ffffffffffffffffffffffffffffffffffffffff1673ffffffffffffffffffffffffffffffffffffffff16600073ffffffffffffffffffffffffffffffffffffffff167f8be0079c531659141344cd1fd0a4f28419497f9722a3daafe3b4186f6b6457e060405160405180910390a3505050620004a6565b6200025f816006620002a564010000000002620016dd179091906401000000009004565b8073ffffffffffffffffffffffffffffffffffffffff167f6719d08c1888103bea251a4ed56406bd0c3e69723c8a1686e017e7bbe159b6f860405160405180910390a250565b600073ffffffffffffffffffffffffffffffffffffffff168173ffffffffffffffffffffffffffffffffffffffff161415620002e057600080fd5b620002fb828262000364640100000000026401000000009004565b156200030657600080fd5b60018260000160008373ffffffffffffffffffffffffffffffffffffffff1673ffffffffffffffffffffffffffffffffffffffff16815260200190815260200160002060006101000a81548160ff0219169083151502179055505050565b60008073ffffffffffffffffffffffffffffffffffffffff168273ffffffffffffffffffffffffffffffffffffffff161415620003a057600080fd5b8260000160008373ffffffffffffffffffffffffffffffffffffffff1673ffffffffffffffffffffffffffffffffffffffff16815260200190815260200160002060009054906101000a900460ff16905092915050565b828054600181600116156101000203166002900490600052602060002090601f016020900481019282601f106200043a57805160ff19168380011785556200046b565b828001600101855582156200046b579182015b828111156200046a5782518255916020019190600101906200044d565b5b5090506200047a91906200047e565b5090565b620004a391905b808211156200049f57600081600090555060010162000485565b5090565b90565b611d1280620004b66000396000f3fe608060405234801561001057600080fd5b5060043610610175576000357c01000000000000000000000000000000000000000000000000000000009004806370a08231116100e05780638f32d59b116100995780638f32d59b146105ff57806395d89b4114610621578063a457c2d7146106a4578063a9059cbb1461070a578063dd62ed3e14610770578063f2fde38b146107e857610175565b806370a08231146104b7578063715018a61461050f57806379cc67901461051957806382dc1ec4146105675780638456cb59146105ab5780638da5cb5b146105b557610175565b80633f4ba83a116101325780633f4ba83a1461039157806340c10f191461039b57806342966c681461040157806346fbf68e1461042f5780635c975abb1461048b5780636ef8d66d146104ad57610175565b806306fdde031461017a578063095ea7b3146101fd57806318160ddd1461026357806323b872dd14610281578063313ce56714610307578063395093511461032b575b600080fd5b61018261082c565b6040518080602001828103825283818151815260200191508051906020019080838360005b838110156101c25780820151818401526020810190506101a7565b50505050905090810190601f1680156101ef5780820380516001836020036101000a031916815260200191505b509250505060405180910390f35b6102496004803603604081101561021357600080fd5b81019080803573ffffffffffffffffffffffffffffffffffffffff169060200190929190803590602001909291905050506108ce565b604051808215151515815260200191505060405180910390f35b61026b61090d565b6040518082815260200191505060405180910390f35b6102ed6004803603606081101561029757600080fd5b81019080803573ffffffffffffffffffffffffffffffffffffffff169060200190929190803573ffffffffffffffffffffffffffffffffffffffff16906020019092919080359060200190929190505050610917565b604051808215151515815260200191505060405180910390f35b61030f610958565b604051808260ff1660ff16815260200191505060405180910390f35b6103776004803603604081101561034157600080fd5b81019080803573ffffffffffffffffffffffffffffffffffffffff1690602001909291908035906020019092919050505061096f565b604051808215151515815260200191505060405180910390f35b6103996109ae565b005b6103e7600480360360408110156103b157600080fd5b81019080803573ffffffffffffffffffffffffffffffffffffffff16906020019092919080359060200190929190505050610a59565b604051808215151515815260200191505060405180910390f35b61042d6004803603602081101561041757600080fd5b8101908080359060200190929190505050610a9a565b005b6104716004803603602081101561044557600080fd5b81019080803573ffffffffffffffffffffffffffffffffffffffff169060200190929190505050610ad2565b604051808215151515815260200191505060405180910390f35b610493610aef565b604051808215151515815260200191505060405180910390f35b6104b5610b06565b005b6104f9600480360360208110156104cd57600080fd5b81019080803573ffffffffffffffffffffffffffffffffffffffff169060200190929190505050610b11565b6040518082815260200191505060405180910390f35b610517610b5a565b005b6105656004803603604081101561052f57600080fd5b81019080803573ffffffffffffffffffffffffffffffffffffffff16906020019092919080359060200190929190505050610c2c565b005b6105a96004803603602081101561057d57600080fd5b81019080803573ffffffffffffffffffffffffffffffffffffffff169060200190929190505050610c65565b005b6105b3610c83565b005b6105bd610d2f565b604051808273ffffffffffffffffffffffffffffffffffffffff1673ffffffffffffffffffffffffffffffffffffffff16815260200191505060405180910390f35b610607610d59565b604051808215151515815260200191505060405180910390f35b610629610db1565b6040518080602001828103825283818151815260200191508051906020019080838360005b8381101561066957808201518184015260208101905061064e565b50505050905090810190601f1680156106965780820380516001836020036101000a031916815260200191505b509250505060405180910390f35b6106f0600480360360408110156106ba57600080fd5b81019080803573ffffffffffffffffffffffffffffffffffffffff16906020019092919080359060200190929190505050610e53565b604051808215151515815260200191505060405180910390f35b6107566004803603604081101561072057600080fd5b81019080803573ffffffffffffffffffffffffffffffffffffffff16906020019092919080359060200190929190505050610e92565b604051808215151515815260200191505060405180910390f35b6107d26004803603604081101561078657600080fd5b81019080803573ffffffffffffffffffffffffffffffffffffffff169060200190929190803573ffffffffffffffffffffffffffffffffffffffff169060200190929190505050610ed1565b6040518082815260200191505060405180910390f35b61082a600480360360208110156107fe57600080fd5b81019080803573ffffffffffffffffffffffffffffffffffffffff169060200190929190505050610f58565b005b606060008054600181600116156101000203166002900480601f0160208091040260200160405190810160405280929190818152602001828054600181600116156101000203166002900480156108c45780601f10610899576101008083540402835291602001916108c4565b820191906000526020600020905b8154815290600101906020018083116108a757829003601f168201915b5050505050905090565b6000600760009054906101000a900460ff16156108ea57600080fd5b6108f2610d59565b6108fb57600080fd5b6109058383610f75565b905092915050565b6000600554905090565b6000600760009054906101000a900460ff161561093357600080fd5b61093b610d59565b61094457600080fd5b61094f848484610fa3565b90509392505050565b6000600260009054906101000a900460ff16905090565b6000600760009054906101000a900460ff161561098b57600080fd5b610993610d59565b61099c57600080fd5b6109a68383610fd3565b905092915050565b6109b733610ad2565b6109c057600080fd5b600760009054906101000a900460ff166109d957600080fd5b6000600760006101000a81548160ff0219169083151502179055507f5db9ee0a495bf2e6ff9c91a7834c1ba4fdd244a5e8aa4e537bd38aeae4b073aa33604051808273ffffffffffffffffffffffffffffffffffffffff1673ffffffffffffffffffffffffffffffffffffffff16815260200191505060405180910390a1565b6000600760009054906101000a900460ff1615610a7557600080fd5b610a7d610d59565b610a8657600080fd5b610a908383611001565b6001905092915050565b600760009054906101000a900460ff1615610ab457600080fd5b610abc610d59565b610ac557600080fd5b610acf3382611155565b50565b6000610ae882600661116390919063ffffffff16565b9050919050565b6000600760009054906101000a900460ff16905090565b610b0f336111f5565b565b6000600360008373ffffffffffffffffffffffffffffffffffffffff1673ffffffffffffffffffffffffffffffffffffffff168152602001908152602001600020549050919050565b610b62610d59565b610b6b57600080fd5b600073ffffffffffffffffffffffffffffffffffffffff16600760019054906101000a900473ffffffffffffffffffffffffffffffffffffffff1673ffffffffffffffffffffffffffffffffffffffff167f8be0079c531659141344cd1fd0a4f28419497f9722a3daafe3b4186f6b6457e060405160405180910390a36000600760016101000a81548173ffffffffffffffffffffffffffffffffffffffff021916908373ffffffffffffffffffffffffffffffffffffffff160217905550565b600760009054906101000a900460ff1615610c4657600080fd5b610c4e610d59565b610c5757600080fd5b610c618282611155565b5050565b610c6e33610ad2565b610c7757600080fd5b610c808161124f565b50565b610c8c33610ad2565b610c9557600080fd5b600760009054906101000a900460ff1615610caf57600080fd5b6001600760006101000a81548160ff0219169083151502179055507f62e78cea01bee320cd4e420270b5ea74000d11b0c9f74754ebdbfc544b05a25833604051808273ffffffffffffffffffffffffffffffffffffffff1673ffffffffffffffffffffffffffffffffffffffff16815260200191505060405180910390a1565b6000600760019054906101000a900473ffffffffffffffffffffffffffffffffffffffff16905090565b6000600760019054906101000a900473ffffffffffffffffffffffffffffffffffffffff1673ffffffffffffffffffffffffffffffffffffffff163373ffffffffffffffffffffffffffffffffffffffff1614905090565b606060018054600181600116156101000203166002900480601f016020809104026020016040519081016040528092919081815260200182805460018160011615610100020316600290048015610e495780601f10610e1e57610100808354040283529160200191610e49565b820191906000526020600020905b815481529060010190602001808311610e2c57829003601f168201915b5050505050905090565b6000600760009054906101000a900460ff1615610e6f57600080fd5b610e77610d59565b610e8057600080fd5b610e8a83836112a9565b905092915050565b6000600760009054906101000a900460ff1615610eae57600080fd5b610eb6610d59565b610ebf57600080fd5b610ec983836112d7565b905092915050565b6000600460008473ffffffffffffffffffffffffffffffffffffffff1673ffffffffffffffffffffffffffffffffffffffff16815260200190815260200160002060008373ffffffffffffffffffffffffffffffffffffffff1673ffffffffffffffffffffffffffffffffffffffff16815260200190815260200160002054905092915050565b610f60610d59565b610f6957600080fd5b610f7281611305565b50565b6000600760009054906101000a900460ff1615610f9157600080fd5b610f9b83836113ff565b905092915050565b6000600760009054906101000a900460ff1615610fbf57600080fd5b610fca848484611416565b90509392505050565b6000600760009054906101000a900460ff1615610fef57600080fd5b610ff983836114c7565b905092915050565b600073ffffffffffffffffffffffffffffffffffffffff168273ffffffffffffffffffffffffffffffffffffffff16141561103b57600080fd5b6110508160055461156c90919063ffffffff16565b6005819055506110a881600360008573ffffffffffffffffffffffffffffffffffffffff1673ffffffffffffffffffffffffffffffffffffffff1681526020019081526020016000205461156c90919063ffffffff16565b600360008473ffffffffffffffffffffffffffffffffffffffff1673ffffffffffffffffffffffffffffffffffffffff168152602001908152602001600020819055508173ffffffffffffffffffffffffffffffffffffffff16600073ffffffffffffffffffffffffffffffffffffffff167fddf252ad1be2c89b69c2b068fc378daa952ba7f163c4a11628f55a4df523b3ef836040518082815260200191505060405180910390a35050565b61115f828261158b565b5050565b60008073ffffffffffffffffffffffffffffffffffffffff168273ffffffffffffffffffffffffffffffffffffffff16141561119e57600080fd5b8260000160008373ffffffffffffffffffffffffffffffffffffffff1673ffffffffffffffffffffffffffffffffffffffff16815260200190815260200160002060009054906101000a900460ff16905092915050565b61120981600661163290919063ffffffff16565b8073ffffffffffffffffffffffffffffffffffffffff167fcd265ebaf09df2871cc7bd4133404a235ba12eff2041bb89d9c714a2621c7c7e60405160405180910390a250565b6112638160066116dd90919063ffffffff16565b8073ffffffffffffffffffffffffffffffffffffffff167f6719d08c1888103bea251a4ed56406bd0c3e69723c8a1686e017e7bbe159b6f860405160405180910390a250565b6000600760009054906101000a900460ff16156112c557600080fd5b6112cf8383611789565b905092915050565b6000600760009054906101000a900460ff16156112f357600080fd5b6112fd838361182e565b905092915050565b600073ffffffffffffffffffffffffffffffffffffffff168173ffffffffffffffffffffffffffffffffffffffff16141561133f57600080fd5b8073ffffffffffffffffffffffffffffffffffffffff16600760019054906101000a900473ffffffffffffffffffffffffffffffffffffffff1673ffffffffffffffffffffffffffffffffffffffff167f8be0079c531659141344cd1fd0a4f28419497f9722a3daafe3b4186f6b6457e060405160405180910390a380600760016101000a81548173ffffffffffffffffffffffffffffffffffffffff021916908373ffffffffffffffffffffffffffffffffffffffff16021790555050565b600061140c338484611845565b6001905092915050565b60006114238484846119a4565b6114bc84336114b785600460008a73ffffffffffffffffffffffffffffffffffffffff1673ffffffffffffffffffffffffffffffffffffffff16815260200190815260200160002060003373ffffffffffffffffffffffffffffffffffffffff1673ffffffffffffffffffffffffffffffffffffffff16815260200190815260200160002054611b7290919063ffffffff16565b611845565b600190509392505050565b6000611562338461155d85600460003373ffffffffffffffffffffffffffffffffffffffff1673ffffffffffffffffffffffffffffffffffffffff16815260200190815260200160002060008973ffffffffffffffffffffffffffffffffffffffff1673ffffffffffffffffffffffffffffffffffffffff1681526020019081526020016000205461156c90919063ffffffff16565b611845565b6001905092915050565b60008082840190508381101561158157600080fd5b8091505092915050565b6115958282611b92565b61162e823361162984600460008873ffffffffffffffffffffffffffffffffffffffff1673ffffffffffffffffffffffffffffffffffffffff16815260200190815260200160002060003373ffffffffffffffffffffffffffffffffffffffff1673ffffffffffffffffffffffffffffffffffffffff16815260200190815260200160002054611b7290919063ffffffff16565b611845565b5050565b600073ffffffffffffffffffffffffffffffffffffffff168173ffffffffffffffffffffffffffffffffffffffff16141561166c57600080fd5b6116768282611163565b61167f57600080fd5b60008260000160008373ffffffffffffffffffffffffffffffffffffffff1673ffffffffffffffffffffffffffffffffffffffff16815260200190815260200160002060006101000a81548160ff0219169083151502179055505050565b600073ffffffffffffffffffffffffffffffffffffffff168173ffffffffffffffffffffffffffffffffffffffff16141561171757600080fd5b6117218282611163565b1561172b57600080fd5b60018260000160008373ffffffffffffffffffffffffffffffffffffffff1673ffffffffffffffffffffffffffffffffffffffff16815260200190815260200160002060006101000a81548160ff0219169083151502179055505050565b6000611824338461181f85600460003373ffffffffffffffffffffffffffffffffffffffff1673ffffffffffffffffffffffffffffffffffffffff16815260200190815260200160002060008973ffffffffffffffffffffffffffffffffffffffff1673ffffffffffffffffffffffffffffffffffffffff16815260200190815260200160002054611b7290919063ffffffff16565b611845565b6001905092915050565b600061183b3384846119a4565b6001905092915050565b600073ffffffffffffffffffffffffffffffffffffffff168273ffffffffffffffffffffffffffffffffffffffff16141561187f57600080fd5b600073ffffffffffffffffffffffffffffffffffffffff168373ffffffffffffffffffffffffffffffffffffffff1614156118b957600080fd5b80600460008573ffffffffffffffffffffffffffffffffffffffff1673ffffffffffffffffffffffffffffffffffffffff16815260200190815260200160002060008473ffffffffffffffffffffffffffffffffffffffff1673ffffffffffffffffffffffffffffffffffffffff168152602001908152602001600020819055508173ffffffffffffffffffffffffffffffffffffffff168373ffffffffffffffffffffffffffffffffffffffff167f8c5be1e5ebec7d5bd14f71427d1e84f3dd0314c0f7b2291e5b200ac8c7c3b925836040518082815260200191505060405180910390a3505050565b600073ffffffffffffffffffffffffffffffffffffffff168273ffffffffffffffffffffffffffffffffffffffff1614156119de57600080fd5b611a3081600360008673ffffffffffffffffffffffffffffffffffffffff1673ffffffffffffffffffffffffffffffffffffffff16815260200190815260200160002054611b7290919063ffffffff16565b600360008573ffffffffffffffffffffffffffffffffffffffff1673ffffffffffffffffffffffffffffffffffffffff16815260200190815260200160002081905550611ac581600360008573ffffffffffffffffffffffffffffffffffffffff1673ffffffffffffffffffffffffffffffffffffffff1681526020019081526020016000205461156c90919063ffffffff16565b600360008473ffffffffffffffffffffffffffffffffffffffff1673ffffffffffffffffffffffffffffffffffffffff168152602001908152602001600020819055508173ffffffffffffffffffffffffffffffffffffffff168373ffffffffffffffffffffffffffffffffffffffff167fddf252ad1be2c89b69c2b068fc378daa952ba7f163c4a11628f55a4df523b3ef836040518082815260200191505060405180910390a3505050565b600082821115611b8157600080fd5b600082840390508091505092915050565b600073ffffffffffffffffffffffffffffffffffffffff168273ffffffffffffffffffffffffffffffffffffffff161415611bcc57600080fd5b611be181600554611b7290919063ffffffff16565b600581905550611c3981600360008573ffffffffffffffffffffffffffffffffffffffff1673ffffffffffffffffffffffffffffffffffffffff16815260200190815260200160002054611b7290919063ffffffff16565b600360008473ffffffffffffffffffffffffffffffffffffffff1673ffffffffffffffffffffffffffffffffffffffff16815260200190815260200160002081905550600073ffffffffffffffffffffffffffffffffffffffff168273ffffffffffffffffffffffffffffffffffffffff167fddf252ad1be2c89b69c2b068fc378daa952ba7f163c4a11628f55a4df523b3ef836040518082815260200191505060405180910390a3505056fea165627a7a7230582088ab339e8cdef6fb3ba4658b116c6cfaccab59556717b1a1f6aa4aef9a86ff240029",
  "source": "pragma solidity ^0.5.2;\r\n\r\nimport \"openzeppelin-solidity/contracts/ownership/Ownable.sol\";\r\nimport \"openzeppelin-solidity/contracts/lifecycle/Pausable.sol\";\r\nimport \"openzeppelin-solidity/contracts/math/SafeMath.sol\";\r\nimport \"./YANFToken.sol\";\r\n\r\ncontract YANFManager is Ownable, Pausable {\r\n\r\n  struct Feed {\r\n    uint articlesCount;\r\n    mapping(uint => Article) articles;\r\n  }\r\n\r\n  struct Article {\r\n    string title;\r\n    string content_hash;\r\n    bool initialized;\r\n    mapping(address => uint) coauthors;\r\n    mapping(uint => address) coauthorsRanks;\r\n    uint coauthorsCount;\r\n    mapping (uint => address) customers;\r\n    uint customersCount;\r\n    uint price;\r\n  }\r\n\r\n  mapping(uint => Feed) private feeds;\r\n  mapping(address => uint) private feedsIndexes;\r\n  uint private feedsCount = 0;\r\n\r\n  uint private constant MAX_WINDOW = 1000;\r\n\r\n  uint public constant fee = 1 finney;\r\n\r\n  address payable feeReceiver;\r\n\r\n  YANFToken private tokenContract =\r\n    new YANFToken(\"Yet Another News Feed Token\", \"YANF\", 18);\r\n\r\n  function setFeeReceiver(address payable who) public onlyOwner {\r\n    feeReceiver = who;\r\n  }\r\n\r\n  function publish(string memory title, string memory content_hash, address[] memory coauthors, uint[] memory parts, uint price)\r\n    public\r\n    returns(bool)\r\n  {\r\n    if (coauthors.length != parts.length) return false;\r\n\r\n    uint partsSum = 0;\r\n    for (uint i = 0; i < parts.length; i = SafeMath.add(i, 1)) {\r\n      partsSum += parts[i];\r\n    }\r\n    if (partsSum > price) {\r\n      return false;\r\n    }\r\n\r\n    if (feedsIndexes[msg.sender] == 0) {\r\n      feedsCount = SafeMath.add(feedsCount, 1);\r\n      uint firstFeedIdx = SafeMath.sub(feedsCount, 1);\r\n      uint firstArticleIdx = SafeMath.sub(feeds[firstFeedIdx].articlesCount, 1);\r\n      feeds[firstFeedIdx].articlesCount = 1;\r\n      feeds[firstFeedIdx].articles[firstArticleIdx] = Article(title, content_hash, true, coauthors.length, 0, price);\r\n      for (uint i = 0; i < coauthors.length; i = SafeMath.add(i, 1)) {\r\n        feeds[firstFeedIdx].articles[firstArticleIdx].coauthors[coauthors[i]] = parts[i];\r\n        feeds[firstFeedIdx].articles[firstArticleIdx].coauthorsRanks[i] = coauthors[i];\r\n      }\r\n      feedsIndexes[msg.sender] = firstFeedIdx;\r\n    } else {\r\n      uint newArticleCount = SafeMath.add(feeds[feedsIndexes[msg.sender]].articlesCount, 1);\r\n      feeds[feedsIndexes[msg.sender]].articlesCount = newArticleCount;\r\n      feeds[feedsIndexes[msg.sender]].articles[SafeMath.sub(newArticleCount, 1)] = Article(title, content_hash, true, coauthors.length, 0, price);\r\n      for (uint i = 0; i < coauthors.length; i = SafeMath.add(i, 1)) {\r\n        feeds[feedsIndexes[msg.sender]].articles[SafeMath.sub(newArticleCount, 1)].coauthors[coauthors[i]] = parts[i];\r\n        feeds[feedsIndexes[msg.sender]].articles[SafeMath.sub(newArticleCount, 1)].coauthorsRanks[i] = coauthors[i];\r\n      }\r\n    }\r\n    return true;\r\n  }\r\n\r\n  function setCoauthorPart(address who, uint articleIndex, uint part)\r\n    public\r\n    returns(bool)\r\n  {\r\n    if (who == address(0) || feedsIndexes[msg.sender] == 0\r\n        || feeds[feedsIndexes[msg.sender]].articlesCount == 0\r\n        || part >= feeds[feedsIndexes[msg.sender]].articles[articleIndex].price) {\r\n      return false;\r\n    }\r\n    feeds[feedsIndexes[msg.sender]].articles[articleIndex].coauthors[who] = part;\r\n    return true;\r\n  }\r\n\r\n  function addCoauthorPart(address who, uint articleIndex, uint part)\r\n    public\r\n    returns(bool)\r\n  {\r\n    if (!setCoauthorPart(who, articleIndex, part)) {\r\n      return false;\r\n    }\r\n    feeds[feedsIndexes[msg.sender]].articles[articleIndex].coauthorsCount =\r\n      SafeMath.add(feeds[feedsIndexes[msg.sender]].articles[articleIndex].coauthorsCount, 1);\r\n    feeds[feedsIndexes[msg.sender]].articles[articleIndex]\r\n      .coauthorsRanks[feeds[feedsIndexes[msg.sender]].articles[articleIndex].coauthorsCount] = who;\r\n    return true;\r\n  }\r\n\r\n  function searchArticlesByTitle(string memory title)\r\n    public\r\n    view\r\n    returns(uint[] memory resArticlesIndexes, uint[] memory resFeedsIndexes)\r\n  {\r\n    uint[] memory resultArticlesIndexes = new uint[](MAX_WINDOW);\r\n    uint[] memory resultFeedsIndexes = new uint[](MAX_WINDOW);\r\n    uint currentArticleIndexCount = 0;\r\n    uint currentFeedIndexCount = 0;\r\n    for (uint i = 0; i <= SafeMath.sub(feedsCount, 1); i = SafeMath.add(i, 1)) {\r\n      for (uint j = 0; j < feeds[i].articlesCount; j = SafeMath.add(j, 1)) {\r\n        if (stringEquals(feeds[i].articles[j].title, title)) {\r\n          resultFeedsIndexes[currentFeedIndexCount] = i;\r\n          currentFeedIndexCount = SafeMath.add(currentFeedIndexCount, 1);\r\n          resultArticlesIndexes[currentArticleIndexCount] = j;\r\n          currentArticleIndexCount = SafeMath.add(currentArticleIndexCount, 1);\r\n        }\r\n      }\r\n    }\r\n    return (resultArticlesIndexes, resultFeedsIndexes);\r\n  }\r\n\r\n  function searchArticleByCoauthor(address coauthor)\r\n    public\r\n    view\r\n    returns(uint[] memory resArticlesIndexes, uint[] memory resFeedsIndexes)\r\n  {\r\n    uint[] memory resultArticlesIndexes = new uint[](MAX_WINDOW);\r\n    uint[] memory resultFeedsIndexes = new uint[](MAX_WINDOW);\r\n    uint currentArticleIndexCount = 0;\r\n    uint currentFeedIndexCount = 0;\r\n    for (uint i = 0; i <= SafeMath.sub(feedsCount, 1); i = SafeMath.add(i, 1)) {\r\n      for (uint j = 0; j < feeds[i].articlesCount; j = SafeMath.add(j, 1)) {\r\n        if (articleContainsCoauthor(i, j, coauthor)) {\r\n          resultFeedsIndexes[currentFeedIndexCount] = i;\r\n          currentFeedIndexCount = SafeMath.add(currentFeedIndexCount, 1);\r\n          resultArticlesIndexes[currentArticleIndexCount] = j;\r\n          currentArticleIndexCount = SafeMath.add(currentArticleIndexCount, 1);\r\n        }\r\n      }\r\n    }\r\n    return (resultArticlesIndexes, resultFeedsIndexes);\r\n  }\r\n\r\n  function searchArticleByPrice(uint price)\r\n    public\r\n    view\r\n    returns(uint[] memory resArticlesIndexes, uint[] memory resFeedsIndexes)\r\n  {\r\n    uint[] memory resultArticlesIndexes = new uint[](MAX_WINDOW);\r\n    uint[] memory resultFeedsIndexes = new uint[](MAX_WINDOW);\r\n    uint currentArticleIndexCount = 0;\r\n    uint currentFeedIndexCount = 0;\r\n    for (uint i = 0; i <= SafeMath.sub(feedsCount, 1); i = SafeMath.add(i, 1)) {\r\n      for (uint j = 0; j < feeds[i].articlesCount; j = SafeMath.add(j, 1)) {\r\n        if (articleHasEqualOrLesserPrice(i, j, price)) {\r\n          resultFeedsIndexes[currentFeedIndexCount] = i;\r\n          currentFeedIndexCount = SafeMath.add(currentFeedIndexCount, 1);\r\n          resultArticlesIndexes[currentArticleIndexCount] = j;\r\n          currentArticleIndexCount = SafeMath.add(currentArticleIndexCount, 1);\r\n        }\r\n      }\r\n    }\r\n    return (resultArticlesIndexes, resultFeedsIndexes);\r\n  }\r\n\r\n  function searchFeedByAuthor(address author)\r\n    public\r\n    view\r\n    returns(uint feedIndex)\r\n  {\r\n    return feedsIndexes[author];\r\n  }\r\n\r\n  function sendContractFees()\r\n    onlyOwner\r\n    public\r\n    returns(bool)\r\n  {\r\n    feeReceiver.transfer(address(this).balance);\r\n    return true;\r\n  }\r\n\r\n  function buy(uint feed, uint article)\r\n    public\r\n    payable\r\n    returns(bool)\r\n  {\r\n    if (feeds[feed].articles[article].price > 0) {\r\n      if (msg.value >= feeds[feed].articles[article].price + fee) {\r\n        feeds[feed].articles[article].customers[feeds[feed].articles[article].customersCount] = msg.sender;\r\n        feeds[feed].articles[article].customersCount += 1;\r\n        uint authorPrice = feeds[feed].articles[article].price;\r\n        for (uint i = 0; i < feeds[feed].articles[article].coauthorsCount; i = SafeMath.add(i, 1)) {\r\n          uint currentCoauthorPrice = feeds[feed].articles[article].coauthors[feeds[feed].articles[article].coauthorsRanks[i]];\r\n          authorPrice = SafeMath.sub(authorPrice, currentCoauthorPrice);\r\n          tokenContract.mint(feeds[feed].articles[article].coauthorsRanks[i], currentCoauthorPrice);\r\n        }\r\n        tokenContract.mint(msg.sender, authorPrice);\r\n        return true;\r\n      } else {\r\n        return false;\r\n      }\r\n    } else {\r\n      feeds[feed].articles[article].customers[feeds[feed].articles[article].customersCount] = msg.sender;\r\n      feeds[feed].articles[article].customersCount += 1;\r\n      return true;\r\n    }\r\n  }\r\n\r\n  function receiveRoyalty()\r\n    public\r\n    returns(bool)\r\n  {\r\n    if (tokenContract.balanceOf(msg.sender) == 0) return true;\r\n    msg.sender.transfer(tokenContract.balanceOf(msg.sender));\r\n    tokenContract.burnFrom(msg.sender, tokenContract.balanceOf(msg.sender));\r\n  }\r\n\r\n  function stringEquals(string memory a, string memory b) private pure returns(bool) {\r\n    return keccak256(abi.encodePacked(a)) == keccak256(abi.encodePacked(b));\r\n  }\r\n\r\n  function articleContainsCoauthor(uint feed, uint article, address who) private view returns(bool) {\r\n    return feeds[feed].articles[article].coauthors[who] != 0;\r\n  }\r\n\r\n  function articleHasEqualOrLesserPrice(uint feed, uint article, uint price) private view returns(bool) {\r\n    return feeds[feed].articles[article].price <= price;\r\n  }\r\n\r\n}\r\n",
  "sourcePath": "D:/dev/work/dapp/eth/test/yanf-toolkit-19/contracts/YANFManager.sol",
  "compiler": {
    "name": "solc",
    "version": "0.5.7+commit.6da8b019.Emscripten.clang"
  },
  "schemaVersion": "3.0.6",
  "updatedAt": "2019-04-19T20:13:22.962Z",
  "devdoc": {
    "methods": {
      "isOwner()": {
        "return": "true if `msg.sender` is the owner of the contract."
      },
      "owner()": {
        "return": "the address of the owner."
      },
      "pause()": {
        "details": "called by the owner to pause, triggers stopped state"
      },
      "paused()": {
        "return": "true if the contract is paused, false otherwise."
      },
      "renounceOwnership()": {
        "details": "Allows the current owner to relinquish control of the contract. It will not be possible to call the functions with the `onlyOwner` modifier anymore."
      },
      "transferOwnership(address)": {
        "details": "Allows the current owner to transfer control of the contract to a newOwner.",
        "params": {
          "newOwner": "The address to transfer ownership to."
        }
      },
      "unpause()": {
        "details": "called by the owner to unpause, returns to normal state"
      }
    }
  },
  "userdoc": {
    "methods": {
      "renounceOwnership()": {
        "notice": "Renouncing ownership will leave the contract without an owner, thereby removing any functionality that is only available to the owner."
      }
    }
  }
}